{
  "contractName": "ExperimenDAOToken",
  "abi": [
    {
      "inputs": [
        {
          "internalType": "uint256",
          "name": "_initialSupply",
          "type": "uint256"
        }
      ],
      "stateMutability": "nonpayable",
      "type": "constructor"
    },
    {
      "anonymous": false,
      "inputs": [
        {
          "indexed": true,
          "internalType": "address",
          "name": "owner",
          "type": "address"
        },
        {
          "indexed": true,
          "internalType": "address",
          "name": "spender",
          "type": "address"
        },
        {
          "indexed": false,
          "internalType": "uint256",
          "name": "value",
          "type": "uint256"
        }
      ],
      "name": "Approval",
      "type": "event"
    },
    {
      "anonymous": false,
      "inputs": [
        {
          "indexed": true,
          "internalType": "address",
          "name": "previousOwner",
          "type": "address"
        },
        {
          "indexed": true,
          "internalType": "address",
          "name": "newOwner",
          "type": "address"
        }
      ],
      "name": "OwnershipTransferred",
      "type": "event"
    },
    {
      "anonymous": false,
      "inputs": [
        {
          "indexed": false,
          "internalType": "address",
          "name": "account",
          "type": "address"
        }
      ],
      "name": "Paused",
      "type": "event"
    },
    {
      "anonymous": false,
      "inputs": [
        {
          "indexed": true,
          "internalType": "bytes32",
          "name": "role",
          "type": "bytes32"
        },
        {
          "indexed": true,
          "internalType": "bytes32",
          "name": "previousAdminRole",
          "type": "bytes32"
        },
        {
          "indexed": true,
          "internalType": "bytes32",
          "name": "newAdminRole",
          "type": "bytes32"
        }
      ],
      "name": "RoleAdminChanged",
      "type": "event"
    },
    {
      "anonymous": false,
      "inputs": [
        {
          "indexed": true,
          "internalType": "bytes32",
          "name": "role",
          "type": "bytes32"
        },
        {
          "indexed": true,
          "internalType": "address",
          "name": "account",
          "type": "address"
        },
        {
          "indexed": true,
          "internalType": "address",
          "name": "sender",
          "type": "address"
        }
      ],
      "name": "RoleGranted",
      "type": "event"
    },
    {
      "anonymous": false,
      "inputs": [
        {
          "indexed": true,
          "internalType": "bytes32",
          "name": "role",
          "type": "bytes32"
        },
        {
          "indexed": true,
          "internalType": "address",
          "name": "account",
          "type": "address"
        },
        {
          "indexed": true,
          "internalType": "address",
          "name": "sender",
          "type": "address"
        }
      ],
      "name": "RoleRevoked",
      "type": "event"
    },
    {
      "anonymous": false,
      "inputs": [
        {
          "indexed": true,
          "internalType": "address",
          "name": "from",
          "type": "address"
        },
        {
          "indexed": true,
          "internalType": "address",
          "name": "to",
          "type": "address"
        },
        {
          "indexed": false,
          "internalType": "uint256",
          "name": "value",
          "type": "uint256"
        }
      ],
      "name": "Transfer",
      "type": "event"
    },
    {
      "anonymous": false,
      "inputs": [
        {
          "indexed": false,
          "internalType": "address",
          "name": "account",
          "type": "address"
        }
      ],
      "name": "Unpaused",
      "type": "event"
    },
    {
      "inputs": [],
      "name": "DEFAULT_ADMIN_ROLE",
      "outputs": [
        {
          "internalType": "bytes32",
          "name": "",
          "type": "bytes32"
        }
      ],
      "stateMutability": "view",
      "type": "function"
    },
    {
      "inputs": [],
      "name": "MINTER_ROLE",
      "outputs": [
        {
          "internalType": "bytes32",
          "name": "",
          "type": "bytes32"
        }
      ],
      "stateMutability": "view",
      "type": "function"
    },
    {
      "inputs": [],
      "name": "PAUSER_ROLE",
      "outputs": [
        {
          "internalType": "bytes32",
          "name": "",
          "type": "bytes32"
        }
      ],
      "stateMutability": "view",
      "type": "function"
    },
    {
      "inputs": [],
      "name": "WHITELISTED",
      "outputs": [
        {
          "internalType": "bytes32",
          "name": "",
          "type": "bytes32"
        }
      ],
      "stateMutability": "view",
      "type": "function"
    },
    {
      "inputs": [
        {
          "internalType": "address",
          "name": "owner",
          "type": "address"
        },
        {
          "internalType": "address",
          "name": "spender",
          "type": "address"
        }
      ],
      "name": "allowance",
      "outputs": [
        {
          "internalType": "uint256",
          "name": "",
          "type": "uint256"
        }
      ],
      "stateMutability": "view",
      "type": "function"
    },
    {
      "inputs": [
        {
          "internalType": "address",
          "name": "spender",
          "type": "address"
        },
        {
          "internalType": "uint256",
          "name": "amount",
          "type": "uint256"
        }
      ],
      "name": "approve",
      "outputs": [
        {
          "internalType": "bool",
          "name": "",
          "type": "bool"
        }
      ],
      "stateMutability": "nonpayable",
      "type": "function"
    },
    {
      "inputs": [
        {
          "internalType": "address",
          "name": "account",
          "type": "address"
        }
      ],
      "name": "balanceOf",
      "outputs": [
        {
          "internalType": "uint256",
          "name": "",
          "type": "uint256"
        }
      ],
      "stateMutability": "view",
      "type": "function"
    },
    {
      "inputs": [
        {
          "internalType": "uint256",
          "name": "amount",
          "type": "uint256"
        }
      ],
      "name": "burn",
      "outputs": [],
      "stateMutability": "nonpayable",
      "type": "function"
    },
    {
      "inputs": [
        {
          "internalType": "address",
          "name": "account",
          "type": "address"
        },
        {
          "internalType": "uint256",
          "name": "amount",
          "type": "uint256"
        }
      ],
      "name": "burnFrom",
      "outputs": [],
      "stateMutability": "nonpayable",
      "type": "function"
    },
    {
      "inputs": [],
      "name": "decimals",
      "outputs": [
        {
          "internalType": "uint8",
          "name": "",
          "type": "uint8"
        }
      ],
      "stateMutability": "view",
      "type": "function"
    },
    {
      "inputs": [
        {
          "internalType": "address",
          "name": "spender",
          "type": "address"
        },
        {
          "internalType": "uint256",
          "name": "subtractedValue",
          "type": "uint256"
        }
      ],
      "name": "decreaseAllowance",
      "outputs": [
        {
          "internalType": "bool",
          "name": "",
          "type": "bool"
        }
      ],
      "stateMutability": "nonpayable",
      "type": "function"
    },
    {
      "inputs": [
        {
          "internalType": "bytes32",
          "name": "role",
          "type": "bytes32"
        }
      ],
      "name": "getRoleAdmin",
      "outputs": [
        {
          "internalType": "bytes32",
          "name": "",
          "type": "bytes32"
        }
      ],
      "stateMutability": "view",
      "type": "function"
    },
    {
      "inputs": [
        {
          "internalType": "bytes32",
          "name": "role",
          "type": "bytes32"
        },
        {
          "internalType": "uint256",
          "name": "index",
          "type": "uint256"
        }
      ],
      "name": "getRoleMember",
      "outputs": [
        {
          "internalType": "address",
          "name": "",
          "type": "address"
        }
      ],
      "stateMutability": "view",
      "type": "function"
    },
    {
      "inputs": [
        {
          "internalType": "bytes32",
          "name": "role",
          "type": "bytes32"
        }
      ],
      "name": "getRoleMemberCount",
      "outputs": [
        {
          "internalType": "uint256",
          "name": "",
          "type": "uint256"
        }
      ],
      "stateMutability": "view",
      "type": "function"
    },
    {
      "inputs": [
        {
          "internalType": "bytes32",
          "name": "role",
          "type": "bytes32"
        },
        {
          "internalType": "address",
          "name": "account",
          "type": "address"
        }
      ],
      "name": "grantRole",
      "outputs": [],
      "stateMutability": "nonpayable",
      "type": "function"
    },
    {
      "inputs": [
        {
          "internalType": "bytes32",
          "name": "role",
          "type": "bytes32"
        },
        {
          "internalType": "address",
          "name": "account",
          "type": "address"
        }
      ],
      "name": "hasRole",
      "outputs": [
        {
          "internalType": "bool",
          "name": "",
          "type": "bool"
        }
      ],
      "stateMutability": "view",
      "type": "function"
    },
    {
      "inputs": [
        {
          "internalType": "address",
          "name": "spender",
          "type": "address"
        },
        {
          "internalType": "uint256",
          "name": "addedValue",
          "type": "uint256"
        }
      ],
      "name": "increaseAllowance",
      "outputs": [
        {
          "internalType": "bool",
          "name": "",
          "type": "bool"
        }
      ],
      "stateMutability": "nonpayable",
      "type": "function"
    },
    {
      "inputs": [
        {
          "internalType": "address",
          "name": "to",
          "type": "address"
        },
        {
          "internalType": "uint256",
          "name": "amount",
          "type": "uint256"
        }
      ],
      "name": "mint",
      "outputs": [],
      "stateMutability": "nonpayable",
      "type": "function"
    },
    {
      "inputs": [],
      "name": "name",
      "outputs": [
        {
          "internalType": "string",
          "name": "",
          "type": "string"
        }
      ],
      "stateMutability": "view",
      "type": "function"
    },
    {
      "inputs": [],
      "name": "owner",
      "outputs": [
        {
          "internalType": "address",
          "name": "",
          "type": "address"
        }
      ],
      "stateMutability": "view",
      "type": "function"
    },
    {
      "inputs": [],
      "name": "pause",
      "outputs": [],
      "stateMutability": "nonpayable",
      "type": "function"
    },
    {
      "inputs": [],
      "name": "paused",
      "outputs": [
        {
          "internalType": "bool",
          "name": "",
          "type": "bool"
        }
      ],
      "stateMutability": "view",
      "type": "function"
    },
    {
      "inputs": [],
      "name": "renounceOwnership",
      "outputs": [],
      "stateMutability": "nonpayable",
      "type": "function"
    },
    {
      "inputs": [
        {
          "internalType": "bytes32",
          "name": "role",
          "type": "bytes32"
        },
        {
          "internalType": "address",
          "name": "account",
          "type": "address"
        }
      ],
      "name": "renounceRole",
      "outputs": [],
      "stateMutability": "nonpayable",
      "type": "function"
    },
    {
      "inputs": [
        {
          "internalType": "bytes32",
          "name": "role",
          "type": "bytes32"
        },
        {
          "internalType": "address",
          "name": "account",
          "type": "address"
        }
      ],
      "name": "revokeRole",
      "outputs": [],
      "stateMutability": "nonpayable",
      "type": "function"
    },
    {
      "inputs": [
        {
          "internalType": "bytes4",
          "name": "interfaceId",
          "type": "bytes4"
        }
      ],
      "name": "supportsInterface",
      "outputs": [
        {
          "internalType": "bool",
          "name": "",
          "type": "bool"
        }
      ],
      "stateMutability": "view",
      "type": "function"
    },
    {
      "inputs": [],
      "name": "symbol",
      "outputs": [
        {
          "internalType": "string",
          "name": "",
          "type": "string"
        }
      ],
      "stateMutability": "view",
      "type": "function"
    },
    {
      "inputs": [],
      "name": "totalSupply",
      "outputs": [
        {
          "internalType": "uint256",
          "name": "",
          "type": "uint256"
        }
      ],
      "stateMutability": "view",
      "type": "function"
    },
    {
      "inputs": [
        {
          "internalType": "address",
          "name": "recipient",
          "type": "address"
        },
        {
          "internalType": "uint256",
          "name": "amount",
          "type": "uint256"
        }
      ],
      "name": "transfer",
      "outputs": [
        {
          "internalType": "bool",
          "name": "",
          "type": "bool"
        }
      ],
      "stateMutability": "nonpayable",
      "type": "function"
    },
    {
      "inputs": [
        {
          "internalType": "address",
          "name": "sender",
          "type": "address"
        },
        {
          "internalType": "address",
          "name": "recipient",
          "type": "address"
        },
        {
          "internalType": "uint256",
          "name": "amount",
          "type": "uint256"
        }
      ],
      "name": "transferFrom",
      "outputs": [
        {
          "internalType": "bool",
          "name": "",
          "type": "bool"
        }
      ],
      "stateMutability": "nonpayable",
      "type": "function"
    },
    {
      "inputs": [
        {
          "internalType": "address",
          "name": "newOwner",
          "type": "address"
        }
      ],
      "name": "transferOwnership",
      "outputs": [],
      "stateMutability": "nonpayable",
      "type": "function"
    },
    {
      "inputs": [],
      "name": "unpause",
      "outputs": [],
      "stateMutability": "nonpayable",
      "type": "function"
    }
  ],
  "bytecode": "0x60806040523480156200001157600080fd5b50604051620044af380380620044af833981810160405281019062000037919062000921565b6040518060400160405280600c81526020017f4578706572696d656e44414f00000000000000000000000000000000000000008152506040518060400160405280600381526020017f455844000000000000000000000000000000000000000000000000000000000081525081818160059080519060200190620000bd92919062000831565b508060069080519060200190620000d692919062000831565b5050506000600760006101000a81548160ff021916908315150217905550620001186000801b6200010c6200021c60201b60201c565b6200022460201b60201c565b620001597f9f2df0fed2c77648de5860a4cc508cd0818c85b8b8a1ab4ceeef8d981c8956a66200014d6200021c60201b60201c565b6200022460201b60201c565b6200019a7f65d7a28e3265b37a6474929f336521b332c1681b933f6cb9f3376673440d862a6200018e6200021c60201b60201c565b6200022460201b60201c565b5050620001bc620001b06200021c60201b60201c565b6200023a60201b60201c565b620001ee7fe799c73ff785ac053943f5d98452f7fa0bcf54da67826fc217d6094dec75c5ee336200030060201b60201c565b6200021533670de0b6b3a76400008362000209919062000982565b6200034860201b60201c565b5062000c60565b600033905090565b6200023682826200030060201b60201c565b5050565b6000600760019054906101000a900473ffffffffffffffffffffffffffffffffffffffff16905081600760016101000a81548173ffffffffffffffffffffffffffffffffffffffff021916908373ffffffffffffffffffffffffffffffffffffffff1602179055508173ffffffffffffffffffffffffffffffffffffffff168173ffffffffffffffffffffffffffffffffffffffff167f8be0079c531659141344cd1fd0a4f28419497f9722a3daafe3b4186f6b6457e060405160405180910390a35050565b620003178282620004c260201b620011751760201c565b620003438160016000858152602001908152602001600020620005b360201b620012551790919060201c565b505050565b600073ffffffffffffffffffffffffffffffffffffffff168273ffffffffffffffffffffffffffffffffffffffff161415620003bb576040517f08c379a0000000000000000000000000000000000000000000000000000000008152600401620003b29062000a44565b60405180910390fd5b620003cf60008383620005eb60201b60201c565b8060046000828254620003e3919062000a66565b9250508190555080600260008473ffffffffffffffffffffffffffffffffffffffff1673ffffffffffffffffffffffffffffffffffffffff16815260200190815260200160002060008282546200043b919062000a66565b925050819055508173ffffffffffffffffffffffffffffffffffffffff16600073ffffffffffffffffffffffffffffffffffffffff167fddf252ad1be2c89b69c2b068fc378daa952ba7f163c4a11628f55a4df523b3ef83604051620004a2919062000ad4565b60405180910390a3620004be600083836200067c60201b60201c565b5050565b620004d482826200068160201b60201c565b620005af57600160008084815260200190815260200160002060000160008373ffffffffffffffffffffffffffffffffffffffff1673ffffffffffffffffffffffffffffffffffffffff16815260200190815260200160002060006101000a81548160ff021916908315150217905550620005546200021c60201b60201c565b73ffffffffffffffffffffffffffffffffffffffff168173ffffffffffffffffffffffffffffffffffffffff16837f2f8788117e7eff1d82e926ec794901d17c78024a50270940304540a733656f0d60405160405180910390a45b5050565b6000620005e3836000018373ffffffffffffffffffffffffffffffffffffffff1660001b620006eb60201b60201c565b905092915050565b620006038383836200076560201b620012851760201c565b620006357fe799c73ff785ac053943f5d98452f7fa0bcf54da67826fc217d6094dec75c5ee836200068160201b60201c565b62000677576040517f08c379a00000000000000000000000000000000000000000000000000000000081526004016200066e9062000b41565b60405180910390fd5b505050565b505050565b600080600084815260200190815260200160002060000160008373ffffffffffffffffffffffffffffffffffffffff1673ffffffffffffffffffffffffffffffffffffffff16815260200190815260200160002060009054906101000a900460ff16905092915050565b6000620006ff83836200078260201b60201c565b6200075a5782600001829080600181540180825580915050600190039060005260206000200160009091909190915055826000018054905083600101600084815260200190815260200160002081905550600190506200075f565b600090505b92915050565b6200077d838383620007a560201b620012951760201c565b505050565b600080836001016000848152602001908152602001600020541415905092915050565b620007bd8383836200081560201b620012ed1760201c565b620007cd6200081a60201b60201c565b1562000810576040517f08c379a0000000000000000000000000000000000000000000000000000000008152600401620008079062000bd9565b60405180910390fd5b505050565b505050565b6000600760009054906101000a900460ff16905090565b8280546200083f9062000c2a565b90600052602060002090601f016020900481019282620008635760008555620008af565b82601f106200087e57805160ff1916838001178555620008af565b82800160010185558215620008af579182015b82811115620008ae57825182559160200191906001019062000891565b5b509050620008be9190620008c2565b5090565b5b80821115620008dd576000816000905550600101620008c3565b5090565b600080fd5b6000819050919050565b620008fb81620008e6565b81146200090757600080fd5b50565b6000815190506200091b81620008f0565b92915050565b6000602082840312156200093a5762000939620008e1565b5b60006200094a848285016200090a565b91505092915050565b7f4e487b7100000000000000000000000000000000000000000000000000000000600052601160045260246000fd5b60006200098f82620008e6565b91506200099c83620008e6565b9250817fffffffffffffffffffffffffffffffffffffffffffffffffffffffffffffffff0483118215151615620009d857620009d762000953565b5b828202905092915050565b600082825260208201905092915050565b7f45524332303a206d696e7420746f20746865207a65726f206164647265737300600082015250565b600062000a2c601f83620009e3565b915062000a3982620009f4565b602082019050919050565b6000602082019050818103600083015262000a5f8162000a1d565b9050919050565b600062000a7382620008e6565b915062000a8083620008e6565b9250827fffffffffffffffffffffffffffffffffffffffffffffffffffffffffffffffff0382111562000ab85762000ab762000953565b5b828201905092915050565b62000ace81620008e6565b82525050565b600060208201905062000aeb600083018462000ac3565b92915050565b7f496e76616c696420726563697069656e74000000000000000000000000000000600082015250565b600062000b29601183620009e3565b915062000b368262000af1565b602082019050919050565b6000602082019050818103600083015262000b5c8162000b1a565b9050919050565b7f45524332305061757361626c653a20746f6b656e207472616e7366657220776860008201527f696c652070617573656400000000000000000000000000000000000000000000602082015250565b600062000bc1602a83620009e3565b915062000bce8262000b63565b604082019050919050565b6000602082019050818103600083015262000bf48162000bb2565b9050919050565b7f4e487b7100000000000000000000000000000000000000000000000000000000600052602260045260246000fd5b6000600282049050600182168062000c4357607f821691505b6020821081141562000c5a5762000c5962000bfb565b5b50919050565b61383f8062000c706000396000f3fe608060405234801561001057600080fd5b50600436106101f05760003560e01c8063715018a61161010f578063a457c2d7116100a2578063d547741f11610071578063d547741f146105bd578063dd62ed3e146105d9578063e63ab1e914610609578063f2fde38b14610627576101f0565b8063a457c2d71461050f578063a9059cbb1461053f578063ca15c8731461056f578063d53913931461059f576101f0565b80639010d07c116100de5780639010d07c1461047357806391d14854146104a357806395d89b41146104d3578063a217fddf146104f1576101f0565b8063715018a61461042557806379cc67901461042f5780638456cb591461044b5780638da5cb5b14610455576101f0565b8063313ce5671161018757806340c10f191161015657806340c10f191461039f57806342966c68146103bb5780635c975abb146103d757806370a08231146103f5576101f0565b8063313ce5671461032b57806336568abe1461034957806339509351146103655780633f4ba83a14610395576101f0565b806318160ddd116101c357806318160ddd1461029157806323b872dd146102af578063248a9ca3146102df5780632f2ff15d1461030f576101f0565b806301ffc9a7146101f557806306fdde0314610225578063095ea7b3146102435780630b71f11614610273575b600080fd5b61020f600480360381019061020a91906124b1565b610643565b60405161021c91906124f9565b60405180910390f35b61022d6106bd565b60405161023a91906125ad565b60405180910390f35b61025d60048036038101906102589190612663565b61074f565b60405161026a91906124f9565b60405180910390f35b61027b61076d565b60405161028891906126bc565b60405180910390f35b610299610791565b6040516102a691906126e6565b60405180910390f35b6102c960048036038101906102c49190612701565b61079b565b6040516102d691906124f9565b60405180910390f35b6102f960048036038101906102f49190612780565b610893565b60405161030691906126bc565b60405180910390f35b610329600480360381019061032491906127ad565b6108b2565b005b6103336108db565b6040516103409190612809565b60405180910390f35b610363600480360381019061035e91906127ad565b6108e4565b005b61037f600480360381019061037a9190612663565b610967565b60405161038c91906124f9565b60405180910390f35b61039d610a13565b005b6103b960048036038101906103b49190612663565b610a8d565b005b6103d560048036038101906103d09190612824565b610b0b565b005b6103df610b1f565b6040516103ec91906124f9565b60405180910390f35b61040f600480360381019061040a9190612851565b610b36565b60405161041c91906126e6565b60405180910390f35b61042d610b7f565b005b61044960048036038101906104449190612663565b610c07565b005b610453610c82565b005b61045d610cfc565b60405161046a919061288d565b60405180910390f35b61048d600480360381019061048891906128a8565b610d26565b60405161049a919061288d565b60405180910390f35b6104bd60048036038101906104b891906127ad565b610d55565b6040516104ca91906124f9565b60405180910390f35b6104db610dbf565b6040516104e891906125ad565b60405180910390f35b6104f9610e51565b60405161050691906126bc565b60405180910390f35b61052960048036038101906105249190612663565b610e58565b60405161053691906124f9565b60405180910390f35b61055960048036038101906105549190612663565b610f43565b60405161056691906124f9565b60405180910390f35b61058960048036038101906105849190612780565b610f61565b60405161059691906126e6565b60405180910390f35b6105a7610f85565b6040516105b491906126bc565b60405180910390f35b6105d760048036038101906105d291906127ad565b610fa9565b005b6105f360048036038101906105ee91906128e8565b610fd2565b60405161060091906126e6565b60405180910390f35b610611611059565b60405161061e91906126bc565b60405180910390f35b610641600480360381019061063c9190612851565b61107d565b005b60007f5a05180f000000000000000000000000000000000000000000000000000000007bffffffffffffffffffffffffffffffffffffffffffffffffffffffff1916827bffffffffffffffffffffffffffffffffffffffffffffffffffffffff191614806106b657506106b5826112f2565b5b9050919050565b6060600580546106cc90612957565b80601f01602080910402602001604051908101604052809291908181526020018280546106f890612957565b80156107455780601f1061071a57610100808354040283529160200191610745565b820191906000526020600020905b81548152906001019060200180831161072857829003601f168201915b5050505050905090565b600061076361075c61136c565b8484611374565b6001905092915050565b7fe799c73ff785ac053943f5d98452f7fa0bcf54da67826fc217d6094dec75c5ee81565b6000600454905090565b60006107a884848461153f565b6000600360008673ffffffffffffffffffffffffffffffffffffffff1673ffffffffffffffffffffffffffffffffffffffff16815260200190815260200160002060006107f361136c565b73ffffffffffffffffffffffffffffffffffffffff1673ffffffffffffffffffffffffffffffffffffffff16815260200190815260200160002054905082811015610873576040517f08c379a000000000000000000000000000000000000000000000000000000000815260040161086a906129fb565b60405180910390fd5b6108878561087f61136c565b858403611374565b60019150509392505050565b6000806000838152602001908152602001600020600101549050919050565b6108bb82610893565b6108cc816108c761136c565b6117c3565b6108d68383611860565b505050565b60006012905090565b6108ec61136c565b73ffffffffffffffffffffffffffffffffffffffff168173ffffffffffffffffffffffffffffffffffffffff1614610959576040517f08c379a000000000000000000000000000000000000000000000000000000000815260040161095090612a8d565b60405180910390fd5b6109638282611894565b5050565b6000610a0961097461136c565b84846003600061098261136c565b73ffffffffffffffffffffffffffffffffffffffff1673ffffffffffffffffffffffffffffffffffffffff16815260200190815260200160002060008873ffffffffffffffffffffffffffffffffffffffff1673ffffffffffffffffffffffffffffffffffffffff16815260200190815260200160002054610a049190612adc565b611374565b6001905092915050565b610a447f65d7a28e3265b37a6474929f336521b332c1681b933f6cb9f3376673440d862a610a3f61136c565b610d55565b610a83576040517f08c379a0000000000000000000000000000000000000000000000000000000008152600401610a7a90612ba4565b60405180910390fd5b610a8b6118c8565b565b610abe7f9f2df0fed2c77648de5860a4cc508cd0818c85b8b8a1ab4ceeef8d981c8956a6610ab961136c565b610d55565b610afd576040517f08c379a0000000000000000000000000000000000000000000000000000000008152600401610af490612c36565b60405180910390fd5b610b07828261196a565b5050565b610b1c610b1661136c565b82611acb565b50565b6000600760009054906101000a900460ff16905090565b6000600260008373ffffffffffffffffffffffffffffffffffffffff1673ffffffffffffffffffffffffffffffffffffffff168152602001908152602001600020549050919050565b610b8761136c565b73ffffffffffffffffffffffffffffffffffffffff16610ba5610cfc565b73ffffffffffffffffffffffffffffffffffffffff1614610bfb576040517f08c379a0000000000000000000000000000000000000000000000000000000008152600401610bf290612ca2565b60405180910390fd5b610c056000611ca4565b565b6000610c1a83610c1561136c565b610fd2565b905081811015610c5f576040517f08c379a0000000000000000000000000000000000000000000000000000000008152600401610c5690612d34565b60405180910390fd5b610c7383610c6b61136c565b848403611374565b610c7d8383611acb565b505050565b610cb37f65d7a28e3265b37a6474929f336521b332c1681b933f6cb9f3376673440d862a610cae61136c565b610d55565b610cf2576040517f08c379a0000000000000000000000000000000000000000000000000000000008152600401610ce990612dc6565b60405180910390fd5b610cfa611d6a565b565b6000600760019054906101000a900473ffffffffffffffffffffffffffffffffffffffff16905090565b6000610d4d8260016000868152602001908152602001600020611e0d90919063ffffffff16565b905092915050565b600080600084815260200190815260200160002060000160008373ffffffffffffffffffffffffffffffffffffffff1673ffffffffffffffffffffffffffffffffffffffff16815260200190815260200160002060009054906101000a900460ff16905092915050565b606060068054610dce90612957565b80601f0160208091040260200160405190810160405280929190818152602001828054610dfa90612957565b8015610e475780601f10610e1c57610100808354040283529160200191610e47565b820191906000526020600020905b815481529060010190602001808311610e2a57829003601f168201915b5050505050905090565b6000801b81565b60008060036000610e6761136c565b73ffffffffffffffffffffffffffffffffffffffff1673ffffffffffffffffffffffffffffffffffffffff16815260200190815260200160002060008573ffffffffffffffffffffffffffffffffffffffff1673ffffffffffffffffffffffffffffffffffffffff16815260200190815260200160002054905082811015610f24576040517f08c379a0000000000000000000000000000000000000000000000000000000008152600401610f1b90612e58565b60405180910390fd5b610f38610f2f61136c565b85858403611374565b600191505092915050565b6000610f57610f5061136c565b848461153f565b6001905092915050565b6000610f7e60016000848152602001908152602001600020611e27565b9050919050565b7f9f2df0fed2c77648de5860a4cc508cd0818c85b8b8a1ab4ceeef8d981c8956a681565b610fb282610893565b610fc381610fbe61136c565b6117c3565b610fcd8383611894565b505050565b6000600360008473ffffffffffffffffffffffffffffffffffffffff1673ffffffffffffffffffffffffffffffffffffffff16815260200190815260200160002060008373ffffffffffffffffffffffffffffffffffffffff1673ffffffffffffffffffffffffffffffffffffffff16815260200190815260200160002054905092915050565b7f65d7a28e3265b37a6474929f336521b332c1681b933f6cb9f3376673440d862a81565b61108561136c565b73ffffffffffffffffffffffffffffffffffffffff166110a3610cfc565b73ffffffffffffffffffffffffffffffffffffffff16146110f9576040517f08c379a00000000000000000000000000000000000000000000000000000000081526004016110f090612ca2565b60405180910390fd5b600073ffffffffffffffffffffffffffffffffffffffff168173ffffffffffffffffffffffffffffffffffffffff161415611169576040517f08c379a000000000000000000000000000000000000000000000000000000000815260040161116090612eea565b60405180910390fd5b61117281611ca4565b50565b61117f8282610d55565b61125157600160008084815260200190815260200160002060000160008373ffffffffffffffffffffffffffffffffffffffff1673ffffffffffffffffffffffffffffffffffffffff16815260200190815260200160002060006101000a81548160ff0219169083151502179055506111f661136c565b73ffffffffffffffffffffffffffffffffffffffff168173ffffffffffffffffffffffffffffffffffffffff16837f2f8788117e7eff1d82e926ec794901d17c78024a50270940304540a733656f0d60405160405180910390a45b5050565b600061127d836000018373ffffffffffffffffffffffffffffffffffffffff1660001b611e3c565b905092915050565b611290838383611295565b505050565b6112a08383836112ed565b6112a8610b1f565b156112e8576040517f08c379a00000000000000000000000000000000000000000000000000000000081526004016112df90612f7c565b60405180910390fd5b505050565b505050565b60007f7965db0b000000000000000000000000000000000000000000000000000000007bffffffffffffffffffffffffffffffffffffffffffffffffffffffff1916827bffffffffffffffffffffffffffffffffffffffffffffffffffffffff19161480611365575061136482611eac565b5b9050919050565b600033905090565b600073ffffffffffffffffffffffffffffffffffffffff168373ffffffffffffffffffffffffffffffffffffffff1614156113e4576040517f08c379a00000000000000000000000000000000000000000000000000000000081526004016113db9061300e565b60405180910390fd5b600073ffffffffffffffffffffffffffffffffffffffff168273ffffffffffffffffffffffffffffffffffffffff161415611454576040517f08c379a000000000000000000000000000000000000000000000000000000000815260040161144b906130a0565b60405180910390fd5b80600360008573ffffffffffffffffffffffffffffffffffffffff1673ffffffffffffffffffffffffffffffffffffffff16815260200190815260200160002060008473ffffffffffffffffffffffffffffffffffffffff1673ffffffffffffffffffffffffffffffffffffffff168152602001908152602001600020819055508173ffffffffffffffffffffffffffffffffffffffff168373ffffffffffffffffffffffffffffffffffffffff167f8c5be1e5ebec7d5bd14f71427d1e84f3dd0314c0f7b2291e5b200ac8c7c3b9258360405161153291906126e6565b60405180910390a3505050565b600073ffffffffffffffffffffffffffffffffffffffff168373ffffffffffffffffffffffffffffffffffffffff1614156115af576040517f08c379a00000000000000000000000000000000000000000000000000000000081526004016115a690613132565b60405180910390fd5b600073ffffffffffffffffffffffffffffffffffffffff168273ffffffffffffffffffffffffffffffffffffffff16141561161f576040517f08c379a0000000000000000000000000000000000000000000000000000000008152600401611616906131c4565b60405180910390fd5b61162a838383611f16565b6000600260008573ffffffffffffffffffffffffffffffffffffffff1673ffffffffffffffffffffffffffffffffffffffff168152602001908152602001600020549050818110156116b1576040517f08c379a00000000000000000000000000000000000000000000000000000000081526004016116a890613256565b60405180910390fd5b818103600260008673ffffffffffffffffffffffffffffffffffffffff1673ffffffffffffffffffffffffffffffffffffffff1681526020019081526020016000208190555081600260008573ffffffffffffffffffffffffffffffffffffffff1673ffffffffffffffffffffffffffffffffffffffff16815260200190815260200160002060008282546117469190612adc565b925050819055508273ffffffffffffffffffffffffffffffffffffffff168473ffffffffffffffffffffffffffffffffffffffff167fddf252ad1be2c89b69c2b068fc378daa952ba7f163c4a11628f55a4df523b3ef846040516117aa91906126e6565b60405180910390a36117bd848484611f8f565b50505050565b6117cd8282610d55565b61185c576117f28173ffffffffffffffffffffffffffffffffffffffff166014611f94565b6118008360001c6020611f94565b60405160200161181192919061334a565b6040516020818303038152906040526040517f08c379a000000000000000000000000000000000000000000000000000000000815260040161185391906125ad565b60405180910390fd5b5050565b61186a8282611175565b61188f816001600085815260200190815260200160002061125590919063ffffffff16565b505050565b61189e82826121d0565b6118c381600160008581526020019081526020016000206122b190919063ffffffff16565b505050565b6118d0610b1f565b61190f576040517f08c379a0000000000000000000000000000000000000000000000000000000008152600401611906906133d0565b60405180910390fd5b6000600760006101000a81548160ff0219169083151502179055507f5db9ee0a495bf2e6ff9c91a7834c1ba4fdd244a5e8aa4e537bd38aeae4b073aa61195361136c565b604051611960919061288d565b60405180910390a1565b600073ffffffffffffffffffffffffffffffffffffffff168273ffffffffffffffffffffffffffffffffffffffff1614156119da576040517f08c379a00000000000000000000000000000000000000000000000000000000081526004016119d19061343c565b60405180910390fd5b6119e660008383611f16565b80600460008282546119f89190612adc565b9250508190555080600260008473ffffffffffffffffffffffffffffffffffffffff1673ffffffffffffffffffffffffffffffffffffffff1681526020019081526020016000206000828254611a4e9190612adc565b925050819055508173ffffffffffffffffffffffffffffffffffffffff16600073ffffffffffffffffffffffffffffffffffffffff167fddf252ad1be2c89b69c2b068fc378daa952ba7f163c4a11628f55a4df523b3ef83604051611ab391906126e6565b60405180910390a3611ac760008383611f8f565b5050565b600073ffffffffffffffffffffffffffffffffffffffff168273ffffffffffffffffffffffffffffffffffffffff161415611b3b576040517f08c379a0000000000000000000000000000000000000000000000000000000008152600401611b32906134ce565b60405180910390fd5b611b4782600083611f16565b6000600260008473ffffffffffffffffffffffffffffffffffffffff1673ffffffffffffffffffffffffffffffffffffffff16815260200190815260200160002054905081811015611bce576040517f08c379a0000000000000000000000000000000000000000000000000000000008152600401611bc590613560565b60405180910390fd5b818103600260008573ffffffffffffffffffffffffffffffffffffffff1673ffffffffffffffffffffffffffffffffffffffff168152602001908152602001600020819055508160046000828254611c269190613580565b92505081905550600073ffffffffffffffffffffffffffffffffffffffff168373ffffffffffffffffffffffffffffffffffffffff167fddf252ad1be2c89b69c2b068fc378daa952ba7f163c4a11628f55a4df523b3ef84604051611c8b91906126e6565b60405180910390a3611c9f83600084611f8f565b505050565b6000600760019054906101000a900473ffffffffffffffffffffffffffffffffffffffff16905081600760016101000a81548173ffffffffffffffffffffffffffffffffffffffff021916908373ffffffffffffffffffffffffffffffffffffffff1602179055508173ffffffffffffffffffffffffffffffffffffffff168173ffffffffffffffffffffffffffffffffffffffff167f8be0079c531659141344cd1fd0a4f28419497f9722a3daafe3b4186f6b6457e060405160405180910390a35050565b611d72610b1f565b15611db2576040517f08c379a0000000000000000000000000000000000000000000000000000000008152600401611da990613600565b60405180910390fd5b6001600760006101000a81548160ff0219169083151502179055507f62e78cea01bee320cd4e420270b5ea74000d11b0c9f74754ebdbfc544b05a258611df661136c565b604051611e03919061288d565b60405180910390a1565b6000611e1c83600001836122e1565b60001c905092915050565b6000611e358260000161230c565b9050919050565b6000611e48838361231d565b611ea1578260000182908060018154018082558091505060019003906000526020600020016000909190919091505582600001805490508360010160008481526020019081526020016000208190555060019050611ea6565b600090505b92915050565b60007f01ffc9a7000000000000000000000000000000000000000000000000000000007bffffffffffffffffffffffffffffffffffffffffffffffffffffffff1916827bffffffffffffffffffffffffffffffffffffffffffffffffffffffff1916149050919050565b611f21838383611285565b611f4b7fe799c73ff785ac053943f5d98452f7fa0bcf54da67826fc217d6094dec75c5ee83610d55565b611f8a576040517f08c379a0000000000000000000000000000000000000000000000000000000008152600401611f819061366c565b60405180910390fd5b505050565b505050565b606060006002836002611fa7919061368c565b611fb19190612adc565b67ffffffffffffffff811115611fca57611fc96136e6565b5b6040519080825280601f01601f191660200182016040528015611ffc5781602001600182028036833780820191505090505b5090507f30000000000000000000000000000000000000000000000000000000000000008160008151811061203457612033613715565b5b60200101907effffffffffffffffffffffffffffffffffffffffffffffffffffffffffffff1916908160001a9053507f78000000000000000000000000000000000000000000000000000000000000008160018151811061209857612097613715565b5b60200101907effffffffffffffffffffffffffffffffffffffffffffffffffffffffffffff1916908160001a905350600060018460026120d8919061368c565b6120e29190612adc565b90505b6001811115612182577f3031323334353637383961626364656600000000000000000000000000000000600f86166010811061212457612123613715565b5b1a60f81b82828151811061213b5761213a613715565b5b60200101907effffffffffffffffffffffffffffffffffffffffffffffffffffffffffffff1916908160001a905350600485901c94508061217b90613744565b90506120e5565b50600084146121c6576040517f08c379a00000000000000000000000000000000000000000000000000000000081526004016121bd906137ba565b60405180910390fd5b8091505092915050565b6121da8282610d55565b156122ad57600080600084815260200190815260200160002060000160008373ffffffffffffffffffffffffffffffffffffffff1673ffffffffffffffffffffffffffffffffffffffff16815260200190815260200160002060006101000a81548160ff02191690831515021790555061225261136c565b73ffffffffffffffffffffffffffffffffffffffff168173ffffffffffffffffffffffffffffffffffffffff16837ff6391f5c32d9c69d2a47ea670b442974b53935d1edc7fd64eb21e047a839171b60405160405180910390a45b5050565b60006122d9836000018373ffffffffffffffffffffffffffffffffffffffff1660001b612340565b905092915050565b60008260000182815481106122f9576122f8613715565b5b9060005260206000200154905092915050565b600081600001805490509050919050565b600080836001016000848152602001908152602001600020541415905092915050565b600080836001016000848152602001908152602001600020549050600081146124485760006001826123729190613580565b905060006001866000018054905061238a9190613580565b90508181146123f95760008660000182815481106123ab576123aa613715565b5b90600052602060002001549050808760000184815481106123cf576123ce613715565b5b90600052602060002001819055508387600101600083815260200190815260200160002081905550505b8560000180548061240d5761240c6137da565b5b60019003818190600052602060002001600090559055856001016000868152602001908152602001600020600090556001935050505061244e565b60009150505b92915050565b600080fd5b60007fffffffff0000000000000000000000000000000000000000000000000000000082169050919050565b61248e81612459565b811461249957600080fd5b50565b6000813590506124ab81612485565b92915050565b6000602082840312156124c7576124c6612454565b5b60006124d58482850161249c565b91505092915050565b60008115159050919050565b6124f3816124de565b82525050565b600060208201905061250e60008301846124ea565b92915050565b600081519050919050565b600082825260208201905092915050565b60005b8381101561254e578082015181840152602081019050612533565b8381111561255d576000848401525b50505050565b6000601f19601f8301169050919050565b600061257f82612514565b612589818561251f565b9350612599818560208601612530565b6125a281612563565b840191505092915050565b600060208201905081810360008301526125c78184612574565b905092915050565b600073ffffffffffffffffffffffffffffffffffffffff82169050919050565b60006125fa826125cf565b9050919050565b61260a816125ef565b811461261557600080fd5b50565b60008135905061262781612601565b92915050565b6000819050919050565b6126408161262d565b811461264b57600080fd5b50565b60008135905061265d81612637565b92915050565b6000806040838503121561267a57612679612454565b5b600061268885828601612618565b92505060206126998582860161264e565b9150509250929050565b6000819050919050565b6126b6816126a3565b82525050565b60006020820190506126d160008301846126ad565b92915050565b6126e08161262d565b82525050565b60006020820190506126fb60008301846126d7565b92915050565b60008060006060848603121561271a57612719612454565b5b600061272886828701612618565b935050602061273986828701612618565b925050604061274a8682870161264e565b9150509250925092565b61275d816126a3565b811461276857600080fd5b50565b60008135905061277a81612754565b92915050565b60006020828403121561279657612795612454565b5b60006127a48482850161276b565b91505092915050565b600080604083850312156127c4576127c3612454565b5b60006127d28582860161276b565b92505060206127e385828601612618565b9150509250929050565b600060ff82169050919050565b612803816127ed565b82525050565b600060208201905061281e60008301846127fa565b92915050565b60006020828403121561283a57612839612454565b5b60006128488482850161264e565b91505092915050565b60006020828403121561286757612866612454565b5b600061287584828501612618565b91505092915050565b612887816125ef565b82525050565b60006020820190506128a2600083018461287e565b92915050565b600080604083850312156128bf576128be612454565b5b60006128cd8582860161276b565b92505060206128de8582860161264e565b9150509250929050565b600080604083850312156128ff576128fe612454565b5b600061290d85828601612618565b925050602061291e85828601612618565b9150509250929050565b7f4e487b7100000000000000000000000000000000000000000000000000000000600052602260045260246000fd5b6000600282049050600182168061296f57607f821691505b6020821081141561298357612982612928565b5b50919050565b7f45524332303a207472616e7366657220616d6f756e742065786365656473206160008201527f6c6c6f77616e6365000000000000000000000000000000000000000000000000602082015250565b60006129e560288361251f565b91506129f082612989565b604082019050919050565b60006020820190508181036000830152612a14816129d8565b9050919050565b7f416363657373436f6e74726f6c3a2063616e206f6e6c792072656e6f756e636560008201527f20726f6c657320666f722073656c660000000000000000000000000000000000602082015250565b6000612a77602f8361251f565b9150612a8282612a1b565b604082019050919050565b60006020820190508181036000830152612aa681612a6a565b9050919050565b7f4e487b7100000000000000000000000000000000000000000000000000000000600052601160045260246000fd5b6000612ae78261262d565b9150612af28361262d565b9250827fffffffffffffffffffffffffffffffffffffffffffffffffffffffffffffffff03821115612b2757612b26612aad565b5b828201905092915050565b7f45524332305072657365744d696e7465725061757365723a206d75737420686160008201527f76652070617573657220726f6c6520746f20756e706175736500000000000000602082015250565b6000612b8e60398361251f565b9150612b9982612b32565b604082019050919050565b60006020820190508181036000830152612bbd81612b81565b9050919050565b7f45524332305072657365744d696e7465725061757365723a206d75737420686160008201527f7665206d696e74657220726f6c6520746f206d696e7400000000000000000000602082015250565b6000612c2060368361251f565b9150612c2b82612bc4565b604082019050919050565b60006020820190508181036000830152612c4f81612c13565b9050919050565b7f4f776e61626c653a2063616c6c6572206973206e6f7420746865206f776e6572600082015250565b6000612c8c60208361251f565b9150612c9782612c56565b602082019050919050565b60006020820190508181036000830152612cbb81612c7f565b9050919050565b7f45524332303a206275726e20616d6f756e74206578636565647320616c6c6f7760008201527f616e636500000000000000000000000000000000000000000000000000000000602082015250565b6000612d1e60248361251f565b9150612d2982612cc2565b604082019050919050565b60006020820190508181036000830152612d4d81612d11565b9050919050565b7f45524332305072657365744d696e7465725061757365723a206d75737420686160008201527f76652070617573657220726f6c6520746f207061757365000000000000000000602082015250565b6000612db060378361251f565b9150612dbb82612d54565b604082019050919050565b60006020820190508181036000830152612ddf81612da3565b9050919050565b7f45524332303a2064656372656173656420616c6c6f77616e63652062656c6f7760008201527f207a65726f000000000000000000000000000000000000000000000000000000602082015250565b6000612e4260258361251f565b9150612e4d82612de6565b604082019050919050565b60006020820190508181036000830152612e7181612e35565b9050919050565b7f4f776e61626c653a206e6577206f776e657220697320746865207a65726f206160008201527f6464726573730000000000000000000000000000000000000000000000000000602082015250565b6000612ed460268361251f565b9150612edf82612e78565b604082019050919050565b60006020820190508181036000830152612f0381612ec7565b9050919050565b7f45524332305061757361626c653a20746f6b656e207472616e7366657220776860008201527f696c652070617573656400000000000000000000000000000000000000000000602082015250565b6000612f66602a8361251f565b9150612f7182612f0a565b604082019050919050565b60006020820190508181036000830152612f9581612f59565b9050919050565b7f45524332303a20617070726f76652066726f6d20746865207a65726f2061646460008201527f7265737300000000000000000000000000000000000000000000000000000000602082015250565b6000612ff860248361251f565b915061300382612f9c565b604082019050919050565b6000602082019050818103600083015261302781612feb565b9050919050565b7f45524332303a20617070726f766520746f20746865207a65726f20616464726560008201527f7373000000000000000000000000000000000000000000000000000000000000602082015250565b600061308a60228361251f565b91506130958261302e565b604082019050919050565b600060208201905081810360008301526130b98161307d565b9050919050565b7f45524332303a207472616e736665722066726f6d20746865207a65726f20616460008201527f6472657373000000000000000000000000000000000000000000000000000000602082015250565b600061311c60258361251f565b9150613127826130c0565b604082019050919050565b6000602082019050818103600083015261314b8161310f565b9050919050565b7f45524332303a207472616e7366657220746f20746865207a65726f206164647260008201527f6573730000000000000000000000000000000000000000000000000000000000602082015250565b60006131ae60238361251f565b91506131b982613152565b604082019050919050565b600060208201905081810360008301526131dd816131a1565b9050919050565b7f45524332303a207472616e7366657220616d6f756e742065786365656473206260008201527f616c616e63650000000000000000000000000000000000000000000000000000602082015250565b600061324060268361251f565b915061324b826131e4565b604082019050919050565b6000602082019050818103600083015261326f81613233565b9050919050565b600081905092915050565b7f416363657373436f6e74726f6c3a206163636f756e7420000000000000000000600082015250565b60006132b7601783613276565b91506132c282613281565b601782019050919050565b60006132d882612514565b6132e28185613276565b93506132f2818560208601612530565b80840191505092915050565b7f206973206d697373696e6720726f6c6520000000000000000000000000000000600082015250565b6000613334601183613276565b915061333f826132fe565b601182019050919050565b6000613355826132aa565b915061336182856132cd565b915061336c82613327565b915061337882846132cd565b91508190509392505050565b7f5061757361626c653a206e6f7420706175736564000000000000000000000000600082015250565b60006133ba60148361251f565b91506133c582613384565b602082019050919050565b600060208201905081810360008301526133e9816133ad565b9050919050565b7f45524332303a206d696e7420746f20746865207a65726f206164647265737300600082015250565b6000613426601f8361251f565b9150613431826133f0565b602082019050919050565b6000602082019050818103600083015261345581613419565b9050919050565b7f45524332303a206275726e2066726f6d20746865207a65726f2061646472657360008201527f7300000000000000000000000000000000000000000000000000000000000000602082015250565b60006134b860218361251f565b91506134c38261345c565b604082019050919050565b600060208201905081810360008301526134e7816134ab565b9050919050565b7f45524332303a206275726e20616d6f756e7420657863656564732062616c616e60008201527f6365000000000000000000000000000000000000000000000000000000000000602082015250565b600061354a60228361251f565b9150613555826134ee565b604082019050919050565b600060208201905081810360008301526135798161353d565b9050919050565b600061358b8261262d565b91506135968361262d565b9250828210156135a9576135a8612aad565b5b828203905092915050565b7f5061757361626c653a2070617573656400000000000000000000000000000000600082015250565b60006135ea60108361251f565b91506135f5826135b4565b602082019050919050565b60006020820190508181036000830152613619816135dd565b9050919050565b7f496e76616c696420726563697069656e74000000000000000000000000000000600082015250565b600061365660118361251f565b915061366182613620565b602082019050919050565b6000602082019050818103600083015261368581613649565b9050919050565b60006136978261262d565b91506136a28361262d565b9250817fffffffffffffffffffffffffffffffffffffffffffffffffffffffffffffffff04831182151516156136db576136da612aad565b5b828202905092915050565b7f4e487b7100000000000000000000000000000000000000000000000000000000600052604160045260246000fd5b7f4e487b7100000000000000000000000000000000000000000000000000000000600052603260045260246000fd5b600061374f8261262d565b9150600082141561376357613762612aad565b5b600182039050919050565b7f537472696e67733a20686578206c656e67746820696e73756666696369656e74600082015250565b60006137a460208361251f565b91506137af8261376e565b602082019050919050565b600060208201905081810360008301526137d381613797565b9050919050565b7f4e487b7100000000000000000000000000000000000000000000000000000000600052603160045260246000fdfea2646970667358221220ddc1ba7c10d125f7a3c23e65ed4fd5c44cd402cbf5bb1c8c1fe55e52880888f364736f6c634300080a0033",
  "immutableReferences": {},
  "source": "// SPDX-License-Identifier: MIT\n/// @author Brian Lundin\npragma solidity 0.8.10;\n\nimport \"@openzeppelin/contracts/token/ERC20/presets/ERC20PresetMinterPauser.sol\";\nimport \"@openzeppelin/contracts/access/Ownable.sol\";\n\n/// @title ExperimenDAO Token\ncontract ExperimenDAOToken is ERC20PresetMinterPauser, Ownable {\n  bytes32 public constant WHITELISTED = keccak256(\"WHITELISTED\");\n\n  /**\n    * @dev The constructor uses the ERC20PresetMinterPauser\n    * @param _initialSupply is the starting supply of this token. This number can never be changed.\n    */\n  constructor(uint256 _initialSupply) ERC20PresetMinterPauser(\"ExperimenDAO\", \"EXD\") {\n    _grantRole(WHITELISTED, msg.sender);\n    _mint(msg.sender, _initialSupply * 10 ** 18);\n  }\n\n  /**\n    * @dev This token can only be sent to address on the whitelist, as this is a private DAO.\n    */\n  function _beforeTokenTransfer(address from, address to, uint256 amount) internal virtual override {\n    super._beforeTokenTransfer(from, to, amount);\n    require(hasRole(WHITELISTED, to), \"Invalid recipient\");\n  }\n}",
  "sourcePath": "/Users/blundin/Developer/ethereum/ExperimenDAO/Contracts/contracts/tokens/ExperimenDAOToken.sol",
  "compiler": {
    "name": "solc",
    "version": "0.8.10+commit.fc410830.Emscripten.clang"
  },
  "schemaVersion": "3.4.4",
  "updatedAt": "2021-12-17T18:45:35.281Z",
  "devdoc": {
    "kind": "dev",
    "methods": {
      "allowance(address,address)": {
        "details": "See {IERC20-allowance}."
      },
      "approve(address,uint256)": {
        "details": "See {IERC20-approve}. Requirements: - `spender` cannot be the zero address."
      },
      "balanceOf(address)": {
        "details": "See {IERC20-balanceOf}."
      },
      "burn(uint256)": {
        "details": "Destroys `amount` tokens from the caller. See {ERC20-_burn}."
      },
      "burnFrom(address,uint256)": {
        "details": "Destroys `amount` tokens from `account`, deducting from the caller's allowance. See {ERC20-_burn} and {ERC20-allowance}. Requirements: - the caller must have allowance for ``accounts``'s tokens of at least `amount`."
      },
      "constructor": {
        "details": "The constructor uses the ERC20PresetMinterPauser",
        "params": {
          "_initialSupply": "is the starting supply of this token. This number can never be changed."
        }
      },
      "decimals()": {
        "details": "Returns the number of decimals used to get its user representation. For example, if `decimals` equals `2`, a balance of `505` tokens should be displayed to a user as `5.05` (`505 / 10 ** 2`). Tokens usually opt for a value of 18, imitating the relationship between Ether and Wei. This is the value {ERC20} uses, unless this function is overridden; NOTE: This information is only used for _display_ purposes: it in no way affects any of the arithmetic of the contract, including {IERC20-balanceOf} and {IERC20-transfer}."
      },
      "decreaseAllowance(address,uint256)": {
        "details": "Atomically decreases the allowance granted to `spender` by the caller. This is an alternative to {approve} that can be used as a mitigation for problems described in {IERC20-approve}. Emits an {Approval} event indicating the updated allowance. Requirements: - `spender` cannot be the zero address. - `spender` must have allowance for the caller of at least `subtractedValue`."
      },
      "getRoleAdmin(bytes32)": {
        "details": "Returns the admin role that controls `role`. See {grantRole} and {revokeRole}. To change a role's admin, use {_setRoleAdmin}."
      },
      "getRoleMember(bytes32,uint256)": {
        "details": "Returns one of the accounts that have `role`. `index` must be a value between 0 and {getRoleMemberCount}, non-inclusive. Role bearers are not sorted in any particular way, and their ordering may change at any point. WARNING: When using {getRoleMember} and {getRoleMemberCount}, make sure you perform all queries on the same block. See the following https://forum.openzeppelin.com/t/iterating-over-elements-on-enumerableset-in-openzeppelin-contracts/2296[forum post] for more information."
      },
      "getRoleMemberCount(bytes32)": {
        "details": "Returns the number of accounts that have `role`. Can be used together with {getRoleMember} to enumerate all bearers of a role."
      },
      "grantRole(bytes32,address)": {
        "details": "Grants `role` to `account`. If `account` had not been already granted `role`, emits a {RoleGranted} event. Requirements: - the caller must have ``role``'s admin role."
      },
      "hasRole(bytes32,address)": {
        "details": "Returns `true` if `account` has been granted `role`."
      },
      "increaseAllowance(address,uint256)": {
        "details": "Atomically increases the allowance granted to `spender` by the caller. This is an alternative to {approve} that can be used as a mitigation for problems described in {IERC20-approve}. Emits an {Approval} event indicating the updated allowance. Requirements: - `spender` cannot be the zero address."
      },
      "mint(address,uint256)": {
        "details": "Creates `amount` new tokens for `to`. See {ERC20-_mint}. Requirements: - the caller must have the `MINTER_ROLE`."
      },
      "name()": {
        "details": "Returns the name of the token."
      },
      "owner()": {
        "details": "Returns the address of the current owner."
      },
      "pause()": {
        "details": "Pauses all token transfers. See {ERC20Pausable} and {Pausable-_pause}. Requirements: - the caller must have the `PAUSER_ROLE`."
      },
      "paused()": {
        "details": "Returns true if the contract is paused, and false otherwise."
      },
      "renounceOwnership()": {
        "details": "Leaves the contract without owner. It will not be possible to call `onlyOwner` functions anymore. Can only be called by the current owner. NOTE: Renouncing ownership will leave the contract without an owner, thereby removing any functionality that is only available to the owner."
      },
      "renounceRole(bytes32,address)": {
        "details": "Revokes `role` from the calling account. Roles are often managed via {grantRole} and {revokeRole}: this function's purpose is to provide a mechanism for accounts to lose their privileges if they are compromised (such as when a trusted device is misplaced). If the calling account had been revoked `role`, emits a {RoleRevoked} event. Requirements: - the caller must be `account`."
      },
      "revokeRole(bytes32,address)": {
        "details": "Revokes `role` from `account`. If `account` had been granted `role`, emits a {RoleRevoked} event. Requirements: - the caller must have ``role``'s admin role."
      },
      "supportsInterface(bytes4)": {
        "details": "See {IERC165-supportsInterface}."
      },
      "symbol()": {
        "details": "Returns the symbol of the token, usually a shorter version of the name."
      },
      "totalSupply()": {
        "details": "See {IERC20-totalSupply}."
      },
      "transfer(address,uint256)": {
        "details": "See {IERC20-transfer}. Requirements: - `recipient` cannot be the zero address. - the caller must have a balance of at least `amount`."
      },
      "transferFrom(address,address,uint256)": {
        "details": "See {IERC20-transferFrom}. Emits an {Approval} event indicating the updated allowance. This is not required by the EIP. See the note at the beginning of {ERC20}. Requirements: - `sender` and `recipient` cannot be the zero address. - `sender` must have a balance of at least `amount`. - the caller must have allowance for ``sender``'s tokens of at least `amount`."
      },
      "transferOwnership(address)": {
        "details": "Transfers ownership of the contract to a new account (`newOwner`). Can only be called by the current owner."
      },
      "unpause()": {
        "details": "Unpauses all token transfers. See {ERC20Pausable} and {Pausable-_unpause}. Requirements: - the caller must have the `PAUSER_ROLE`."
      }
    },
    "title": "ExperimenDAO Token",
    "version": 1
  },
  "userdoc": {
    "kind": "user",
    "methods": {},
    "version": 1
  }
}