{
  "contractName": "ExperimenDAOToken",
  "abi": [
    {
      "inputs": [
        {
          "internalType": "uint256",
          "name": "_initialSupply",
          "type": "uint256"
        }
      ],
      "stateMutability": "nonpayable",
      "type": "constructor"
    },
    {
      "anonymous": false,
      "inputs": [
        {
          "indexed": true,
          "internalType": "address",
          "name": "owner",
          "type": "address"
        },
        {
          "indexed": true,
          "internalType": "address",
          "name": "spender",
          "type": "address"
        },
        {
          "indexed": false,
          "internalType": "uint256",
          "name": "value",
          "type": "uint256"
        }
      ],
      "name": "Approval",
      "type": "event"
    },
    {
      "anonymous": false,
      "inputs": [
        {
          "indexed": true,
          "internalType": "address",
          "name": "previousOwner",
          "type": "address"
        },
        {
          "indexed": true,
          "internalType": "address",
          "name": "newOwner",
          "type": "address"
        }
      ],
      "name": "OwnershipTransferred",
      "type": "event"
    },
    {
      "anonymous": false,
      "inputs": [
        {
          "indexed": false,
          "internalType": "address",
          "name": "account",
          "type": "address"
        }
      ],
      "name": "Paused",
      "type": "event"
    },
    {
      "anonymous": false,
      "inputs": [
        {
          "indexed": true,
          "internalType": "bytes32",
          "name": "role",
          "type": "bytes32"
        },
        {
          "indexed": true,
          "internalType": "bytes32",
          "name": "previousAdminRole",
          "type": "bytes32"
        },
        {
          "indexed": true,
          "internalType": "bytes32",
          "name": "newAdminRole",
          "type": "bytes32"
        }
      ],
      "name": "RoleAdminChanged",
      "type": "event"
    },
    {
      "anonymous": false,
      "inputs": [
        {
          "indexed": true,
          "internalType": "bytes32",
          "name": "role",
          "type": "bytes32"
        },
        {
          "indexed": true,
          "internalType": "address",
          "name": "account",
          "type": "address"
        },
        {
          "indexed": true,
          "internalType": "address",
          "name": "sender",
          "type": "address"
        }
      ],
      "name": "RoleGranted",
      "type": "event"
    },
    {
      "anonymous": false,
      "inputs": [
        {
          "indexed": true,
          "internalType": "bytes32",
          "name": "role",
          "type": "bytes32"
        },
        {
          "indexed": true,
          "internalType": "address",
          "name": "account",
          "type": "address"
        },
        {
          "indexed": true,
          "internalType": "address",
          "name": "sender",
          "type": "address"
        }
      ],
      "name": "RoleRevoked",
      "type": "event"
    },
    {
      "anonymous": false,
      "inputs": [
        {
          "indexed": true,
          "internalType": "address",
          "name": "from",
          "type": "address"
        },
        {
          "indexed": true,
          "internalType": "address",
          "name": "to",
          "type": "address"
        },
        {
          "indexed": false,
          "internalType": "uint256",
          "name": "value",
          "type": "uint256"
        }
      ],
      "name": "Transfer",
      "type": "event"
    },
    {
      "anonymous": false,
      "inputs": [
        {
          "indexed": false,
          "internalType": "address",
          "name": "account",
          "type": "address"
        }
      ],
      "name": "Unpaused",
      "type": "event"
    },
    {
      "inputs": [],
      "name": "DEFAULT_ADMIN_ROLE",
      "outputs": [
        {
          "internalType": "bytes32",
          "name": "",
          "type": "bytes32"
        }
      ],
      "stateMutability": "view",
      "type": "function"
    },
    {
      "inputs": [],
      "name": "MINTER_ROLE",
      "outputs": [
        {
          "internalType": "bytes32",
          "name": "",
          "type": "bytes32"
        }
      ],
      "stateMutability": "view",
      "type": "function"
    },
    {
      "inputs": [],
      "name": "PAUSER_ROLE",
      "outputs": [
        {
          "internalType": "bytes32",
          "name": "",
          "type": "bytes32"
        }
      ],
      "stateMutability": "view",
      "type": "function"
    },
    {
      "inputs": [],
      "name": "WHITELISTED",
      "outputs": [
        {
          "internalType": "bytes32",
          "name": "",
          "type": "bytes32"
        }
      ],
      "stateMutability": "view",
      "type": "function"
    },
    {
      "inputs": [
        {
          "internalType": "address",
          "name": "owner",
          "type": "address"
        },
        {
          "internalType": "address",
          "name": "spender",
          "type": "address"
        }
      ],
      "name": "allowance",
      "outputs": [
        {
          "internalType": "uint256",
          "name": "",
          "type": "uint256"
        }
      ],
      "stateMutability": "view",
      "type": "function"
    },
    {
      "inputs": [
        {
          "internalType": "address",
          "name": "spender",
          "type": "address"
        },
        {
          "internalType": "uint256",
          "name": "amount",
          "type": "uint256"
        }
      ],
      "name": "approve",
      "outputs": [
        {
          "internalType": "bool",
          "name": "",
          "type": "bool"
        }
      ],
      "stateMutability": "nonpayable",
      "type": "function"
    },
    {
      "inputs": [
        {
          "internalType": "address",
          "name": "account",
          "type": "address"
        }
      ],
      "name": "balanceOf",
      "outputs": [
        {
          "internalType": "uint256",
          "name": "",
          "type": "uint256"
        }
      ],
      "stateMutability": "view",
      "type": "function"
    },
    {
      "inputs": [
        {
          "internalType": "uint256",
          "name": "amount",
          "type": "uint256"
        }
      ],
      "name": "burn",
      "outputs": [],
      "stateMutability": "nonpayable",
      "type": "function"
    },
    {
      "inputs": [
        {
          "internalType": "address",
          "name": "account",
          "type": "address"
        },
        {
          "internalType": "uint256",
          "name": "amount",
          "type": "uint256"
        }
      ],
      "name": "burnFrom",
      "outputs": [],
      "stateMutability": "nonpayable",
      "type": "function"
    },
    {
      "inputs": [],
      "name": "decimals",
      "outputs": [
        {
          "internalType": "uint8",
          "name": "",
          "type": "uint8"
        }
      ],
      "stateMutability": "view",
      "type": "function"
    },
    {
      "inputs": [
        {
          "internalType": "address",
          "name": "spender",
          "type": "address"
        },
        {
          "internalType": "uint256",
          "name": "subtractedValue",
          "type": "uint256"
        }
      ],
      "name": "decreaseAllowance",
      "outputs": [
        {
          "internalType": "bool",
          "name": "",
          "type": "bool"
        }
      ],
      "stateMutability": "nonpayable",
      "type": "function"
    },
    {
      "inputs": [
        {
          "internalType": "bytes32",
          "name": "role",
          "type": "bytes32"
        }
      ],
      "name": "getRoleAdmin",
      "outputs": [
        {
          "internalType": "bytes32",
          "name": "",
          "type": "bytes32"
        }
      ],
      "stateMutability": "view",
      "type": "function"
    },
    {
      "inputs": [
        {
          "internalType": "bytes32",
          "name": "role",
          "type": "bytes32"
        },
        {
          "internalType": "uint256",
          "name": "index",
          "type": "uint256"
        }
      ],
      "name": "getRoleMember",
      "outputs": [
        {
          "internalType": "address",
          "name": "",
          "type": "address"
        }
      ],
      "stateMutability": "view",
      "type": "function"
    },
    {
      "inputs": [
        {
          "internalType": "bytes32",
          "name": "role",
          "type": "bytes32"
        }
      ],
      "name": "getRoleMemberCount",
      "outputs": [
        {
          "internalType": "uint256",
          "name": "",
          "type": "uint256"
        }
      ],
      "stateMutability": "view",
      "type": "function"
    },
    {
      "inputs": [
        {
          "internalType": "bytes32",
          "name": "role",
          "type": "bytes32"
        },
        {
          "internalType": "address",
          "name": "account",
          "type": "address"
        }
      ],
      "name": "grantRole",
      "outputs": [],
      "stateMutability": "nonpayable",
      "type": "function"
    },
    {
      "inputs": [
        {
          "internalType": "bytes32",
          "name": "role",
          "type": "bytes32"
        },
        {
          "internalType": "address",
          "name": "account",
          "type": "address"
        }
      ],
      "name": "hasRole",
      "outputs": [
        {
          "internalType": "bool",
          "name": "",
          "type": "bool"
        }
      ],
      "stateMutability": "view",
      "type": "function"
    },
    {
      "inputs": [
        {
          "internalType": "address",
          "name": "spender",
          "type": "address"
        },
        {
          "internalType": "uint256",
          "name": "addedValue",
          "type": "uint256"
        }
      ],
      "name": "increaseAllowance",
      "outputs": [
        {
          "internalType": "bool",
          "name": "",
          "type": "bool"
        }
      ],
      "stateMutability": "nonpayable",
      "type": "function"
    },
    {
      "inputs": [
        {
          "internalType": "address",
          "name": "to",
          "type": "address"
        },
        {
          "internalType": "uint256",
          "name": "amount",
          "type": "uint256"
        }
      ],
      "name": "mint",
      "outputs": [],
      "stateMutability": "nonpayable",
      "type": "function"
    },
    {
      "inputs": [],
      "name": "name",
      "outputs": [
        {
          "internalType": "string",
          "name": "",
          "type": "string"
        }
      ],
      "stateMutability": "view",
      "type": "function"
    },
    {
      "inputs": [],
      "name": "owner",
      "outputs": [
        {
          "internalType": "address",
          "name": "",
          "type": "address"
        }
      ],
      "stateMutability": "view",
      "type": "function"
    },
    {
      "inputs": [],
      "name": "pause",
      "outputs": [],
      "stateMutability": "nonpayable",
      "type": "function"
    },
    {
      "inputs": [],
      "name": "paused",
      "outputs": [
        {
          "internalType": "bool",
          "name": "",
          "type": "bool"
        }
      ],
      "stateMutability": "view",
      "type": "function"
    },
    {
      "inputs": [],
      "name": "renounceOwnership",
      "outputs": [],
      "stateMutability": "nonpayable",
      "type": "function"
    },
    {
      "inputs": [
        {
          "internalType": "bytes32",
          "name": "role",
          "type": "bytes32"
        },
        {
          "internalType": "address",
          "name": "account",
          "type": "address"
        }
      ],
      "name": "renounceRole",
      "outputs": [],
      "stateMutability": "nonpayable",
      "type": "function"
    },
    {
      "inputs": [
        {
          "internalType": "bytes32",
          "name": "role",
          "type": "bytes32"
        },
        {
          "internalType": "address",
          "name": "account",
          "type": "address"
        }
      ],
      "name": "revokeRole",
      "outputs": [],
      "stateMutability": "nonpayable",
      "type": "function"
    },
    {
      "inputs": [
        {
          "internalType": "bytes4",
          "name": "interfaceId",
          "type": "bytes4"
        }
      ],
      "name": "supportsInterface",
      "outputs": [
        {
          "internalType": "bool",
          "name": "",
          "type": "bool"
        }
      ],
      "stateMutability": "view",
      "type": "function"
    },
    {
      "inputs": [],
      "name": "symbol",
      "outputs": [
        {
          "internalType": "string",
          "name": "",
          "type": "string"
        }
      ],
      "stateMutability": "view",
      "type": "function"
    },
    {
      "inputs": [],
      "name": "totalSupply",
      "outputs": [
        {
          "internalType": "uint256",
          "name": "",
          "type": "uint256"
        }
      ],
      "stateMutability": "view",
      "type": "function"
    },
    {
      "inputs": [
        {
          "internalType": "address",
          "name": "recipient",
          "type": "address"
        },
        {
          "internalType": "uint256",
          "name": "amount",
          "type": "uint256"
        }
      ],
      "name": "transfer",
      "outputs": [
        {
          "internalType": "bool",
          "name": "",
          "type": "bool"
        }
      ],
      "stateMutability": "nonpayable",
      "type": "function"
    },
    {
      "inputs": [
        {
          "internalType": "address",
          "name": "sender",
          "type": "address"
        },
        {
          "internalType": "address",
          "name": "recipient",
          "type": "address"
        },
        {
          "internalType": "uint256",
          "name": "amount",
          "type": "uint256"
        }
      ],
      "name": "transferFrom",
      "outputs": [
        {
          "internalType": "bool",
          "name": "",
          "type": "bool"
        }
      ],
      "stateMutability": "nonpayable",
      "type": "function"
    },
    {
      "inputs": [
        {
          "internalType": "address",
          "name": "newOwner",
          "type": "address"
        }
      ],
      "name": "transferOwnership",
      "outputs": [],
      "stateMutability": "nonpayable",
      "type": "function"
    },
    {
      "inputs": [],
      "name": "unpause",
      "outputs": [],
      "stateMutability": "nonpayable",
      "type": "function"
    },
    {
      "inputs": [
        {
          "internalType": "address",
          "name": "newPoolAddress",
          "type": "address"
        }
      ],
      "name": "setInvestmentPool",
      "outputs": [],
      "stateMutability": "nonpayable",
      "type": "function"
    },
    {
      "inputs": [],
      "name": "getInvestmentPool",
      "outputs": [
        {
          "internalType": "address",
          "name": "",
          "type": "address"
        }
      ],
      "stateMutability": "view",
      "type": "function"
    }
  ],
  "bytecode": "0x60806040523480156200001157600080fd5b506040516200469e3803806200469e833981810160405281019062000037919062000921565b6040518060400160405280600c81526020017f4578706572696d656e44414f00000000000000000000000000000000000000008152506040518060400160405280600381526020017f455844000000000000000000000000000000000000000000000000000000000081525081818160059080519060200190620000bd92919062000831565b508060069080519060200190620000d692919062000831565b5050506000600760006101000a81548160ff021916908315150217905550620001186000801b6200010c6200021c60201b60201c565b6200022460201b60201c565b620001597f9f2df0fed2c77648de5860a4cc508cd0818c85b8b8a1ab4ceeef8d981c8956a66200014d6200021c60201b60201c565b6200022460201b60201c565b6200019a7f65d7a28e3265b37a6474929f336521b332c1681b933f6cb9f3376673440d862a6200018e6200021c60201b60201c565b6200022460201b60201c565b5050620001bc620001b06200021c60201b60201c565b6200023a60201b60201c565b620001ee7fe799c73ff785ac053943f5d98452f7fa0bcf54da67826fc217d6094dec75c5ee336200030060201b60201c565b6200021533670de0b6b3a76400008362000209919062000982565b6200034860201b60201c565b5062000c60565b600033905090565b6200023682826200030060201b60201c565b5050565b6000600760019054906101000a900473ffffffffffffffffffffffffffffffffffffffff16905081600760016101000a81548173ffffffffffffffffffffffffffffffffffffffff021916908373ffffffffffffffffffffffffffffffffffffffff1602179055508173ffffffffffffffffffffffffffffffffffffffff168173ffffffffffffffffffffffffffffffffffffffff167f8be0079c531659141344cd1fd0a4f28419497f9722a3daafe3b4186f6b6457e060405160405180910390a35050565b620003178282620004c260201b620013641760201c565b620003438160016000858152602001908152602001600020620005b360201b620014441790919060201c565b505050565b600073ffffffffffffffffffffffffffffffffffffffff168273ffffffffffffffffffffffffffffffffffffffff161415620003bb576040517f08c379a0000000000000000000000000000000000000000000000000000000008152600401620003b29062000a44565b60405180910390fd5b620003cf60008383620005eb60201b60201c565b8060046000828254620003e3919062000a66565b9250508190555080600260008473ffffffffffffffffffffffffffffffffffffffff1673ffffffffffffffffffffffffffffffffffffffff16815260200190815260200160002060008282546200043b919062000a66565b925050819055508173ffffffffffffffffffffffffffffffffffffffff16600073ffffffffffffffffffffffffffffffffffffffff167fddf252ad1be2c89b69c2b068fc378daa952ba7f163c4a11628f55a4df523b3ef83604051620004a2919062000ad4565b60405180910390a3620004be600083836200067c60201b60201c565b5050565b620004d482826200068160201b60201c565b620005af57600160008084815260200190815260200160002060000160008373ffffffffffffffffffffffffffffffffffffffff1673ffffffffffffffffffffffffffffffffffffffff16815260200190815260200160002060006101000a81548160ff021916908315150217905550620005546200021c60201b60201c565b73ffffffffffffffffffffffffffffffffffffffff168173ffffffffffffffffffffffffffffffffffffffff16837f2f8788117e7eff1d82e926ec794901d17c78024a50270940304540a733656f0d60405160405180910390a45b5050565b6000620005e3836000018373ffffffffffffffffffffffffffffffffffffffff1660001b620006eb60201b60201c565b905092915050565b620006038383836200076560201b620014741760201c565b620006357fe799c73ff785ac053943f5d98452f7fa0bcf54da67826fc217d6094dec75c5ee836200068160201b60201c565b62000677576040517f08c379a00000000000000000000000000000000000000000000000000000000081526004016200066e9062000b41565b60405180910390fd5b505050565b505050565b600080600084815260200190815260200160002060000160008373ffffffffffffffffffffffffffffffffffffffff1673ffffffffffffffffffffffffffffffffffffffff16815260200190815260200160002060009054906101000a900460ff16905092915050565b6000620006ff83836200078260201b60201c565b6200075a5782600001829080600181540180825580915050600190039060005260206000200160009091909190915055826000018054905083600101600084815260200190815260200160002081905550600190506200075f565b600090505b92915050565b6200077d838383620007a560201b620014841760201c565b505050565b600080836001016000848152602001908152602001600020541415905092915050565b620007bd8383836200081560201b620014dc1760201c565b620007cd6200081a60201b60201c565b1562000810576040517f08c379a0000000000000000000000000000000000000000000000000000000008152600401620008079062000bd9565b60405180910390fd5b505050565b505050565b6000600760009054906101000a900460ff16905090565b8280546200083f9062000c2a565b90600052602060002090601f016020900481019282620008635760008555620008af565b82601f106200087e57805160ff1916838001178555620008af565b82800160010185558215620008af579182015b82811115620008ae57825182559160200191906001019062000891565b5b509050620008be9190620008c2565b5090565b5b80821115620008dd576000816000905550600101620008c3565b5090565b600080fd5b6000819050919050565b620008fb81620008e6565b81146200090757600080fd5b50565b6000815190506200091b81620008f0565b92915050565b6000602082840312156200093a5762000939620008e1565b5b60006200094a848285016200090a565b91505092915050565b7f4e487b7100000000000000000000000000000000000000000000000000000000600052601160045260246000fd5b60006200098f82620008e6565b91506200099c83620008e6565b9250817fffffffffffffffffffffffffffffffffffffffffffffffffffffffffffffffff0483118215151615620009d857620009d762000953565b5b828202905092915050565b600082825260208201905092915050565b7f45524332303a206d696e7420746f20746865207a65726f206164647265737300600082015250565b600062000a2c601f83620009e3565b915062000a3982620009f4565b602082019050919050565b6000602082019050818103600083015262000a5f8162000a1d565b9050919050565b600062000a7382620008e6565b915062000a8083620008e6565b9250827fffffffffffffffffffffffffffffffffffffffffffffffffffffffffffffffff0382111562000ab85762000ab762000953565b5b828201905092915050565b62000ace81620008e6565b82525050565b600060208201905062000aeb600083018462000ac3565b92915050565b7f496e76616c696420726563697069656e74000000000000000000000000000000600082015250565b600062000b29601183620009e3565b915062000b368262000af1565b602082019050919050565b6000602082019050818103600083015262000b5c8162000b1a565b9050919050565b7f45524332305061757361626c653a20746f6b656e207472616e7366657220776860008201527f696c652070617573656400000000000000000000000000000000000000000000602082015250565b600062000bc1602a83620009e3565b915062000bce8262000b63565b604082019050919050565b6000602082019050818103600083015262000bf48162000bb2565b9050919050565b7f4e487b7100000000000000000000000000000000000000000000000000000000600052602260045260246000fd5b6000600282049050600182168062000c4357607f821691505b6020821081141562000c5a5762000c5962000bfb565b5b50919050565b613a2e8062000c706000396000f3fe608060405234801561001057600080fd5b50600436106102065760003560e01c8063715018a61161011a578063a457c2d7116100ad578063d53913931161007c578063d5391393146105ef578063d547741f1461060d578063dd62ed3e14610629578063e63ab1e914610659578063f2fde38b1461067757610206565b8063a457c2d714610543578063a9059cbb14610573578063bb4bcffc146105a3578063ca15c873146105bf57610206565b80639010d07c116100e95780639010d07c146104a757806391d14854146104d757806395d89b4114610507578063a217fddf1461052557610206565b8063715018a61461045957806379cc6790146104635780638456cb591461047f5780638da5cb5b1461048957610206565b8063313ce5671161019d57806340c10f191161016c57806340c10f19146103b557806342966c68146103d157806356522f3c146103ed5780635c975abb1461040b57806370a082311461042957610206565b8063313ce5671461034157806336568abe1461035f578063395093511461037b5780633f4ba83a146103ab57610206565b806318160ddd116101d957806318160ddd146102a757806323b872dd146102c5578063248a9ca3146102f55780632f2ff15d1461032557610206565b806301ffc9a71461020b57806306fdde031461023b578063095ea7b3146102595780630b71f11614610289575b600080fd5b610225600480360381019061022091906126a0565b610693565b60405161023291906126e8565b60405180910390f35b61024361070d565b604051610250919061279c565b60405180910390f35b610273600480360381019061026e9190612852565b61079f565b60405161028091906126e8565b60405180910390f35b6102916107bd565b60405161029e91906128ab565b60405180910390f35b6102af6107e1565b6040516102bc91906128d5565b60405180910390f35b6102df60048036038101906102da91906128f0565b6107eb565b6040516102ec91906126e8565b60405180910390f35b61030f600480360381019061030a919061296f565b6108e3565b60405161031c91906128ab565b60405180910390f35b61033f600480360381019061033a919061299c565b610902565b005b61034961092b565b60405161035691906129f8565b60405180910390f35b6103796004803603810190610374919061299c565b610934565b005b61039560048036038101906103909190612852565b6109b7565b6040516103a291906126e8565b60405180910390f35b6103b3610a63565b005b6103cf60048036038101906103ca9190612852565b610add565b005b6103eb60048036038101906103e69190612a13565b610b5b565b005b6103f5610b6f565b6040516104029190612a4f565b60405180910390f35b610413610b99565b60405161042091906126e8565b60405180910390f35b610443600480360381019061043e9190612a6a565b610bb0565b60405161045091906128d5565b60405180910390f35b610461610bf9565b005b61047d60048036038101906104789190612852565b610c81565b005b610487610cfc565b005b610491610d76565b60405161049e9190612a4f565b60405180910390f35b6104c160048036038101906104bc9190612a97565b610da0565b6040516104ce9190612a4f565b60405180910390f35b6104f160048036038101906104ec919061299c565b610dcf565b6040516104fe91906126e8565b60405180910390f35b61050f610e39565b60405161051c919061279c565b60405180910390f35b61052d610ecb565b60405161053a91906128ab565b60405180910390f35b61055d60048036038101906105589190612852565b610ed2565b60405161056a91906126e8565b60405180910390f35b61058d60048036038101906105889190612852565b610fbd565b60405161059a91906126e8565b60405180910390f35b6105bd60048036038101906105b89190612a6a565b610fdb565b005b6105d960048036038101906105d4919061296f565b611150565b6040516105e691906128d5565b60405180910390f35b6105f7611174565b60405161060491906128ab565b60405180910390f35b6106276004803603810190610622919061299c565b611198565b005b610643600480360381019061063e9190612ad7565b6111c1565b60405161065091906128d5565b60405180910390f35b610661611248565b60405161066e91906128ab565b60405180910390f35b610691600480360381019061068c9190612a6a565b61126c565b005b60007f5a05180f000000000000000000000000000000000000000000000000000000007bffffffffffffffffffffffffffffffffffffffffffffffffffffffff1916827bffffffffffffffffffffffffffffffffffffffffffffffffffffffff191614806107065750610705826114e1565b5b9050919050565b60606005805461071c90612b46565b80601f016020809104026020016040519081016040528092919081815260200182805461074890612b46565b80156107955780601f1061076a57610100808354040283529160200191610795565b820191906000526020600020905b81548152906001019060200180831161077857829003601f168201915b5050505050905090565b60006107b36107ac61155b565b8484611563565b6001905092915050565b7fe799c73ff785ac053943f5d98452f7fa0bcf54da67826fc217d6094dec75c5ee81565b6000600454905090565b60006107f884848461172e565b6000600360008673ffffffffffffffffffffffffffffffffffffffff1673ffffffffffffffffffffffffffffffffffffffff168152602001908152602001600020600061084361155b565b73ffffffffffffffffffffffffffffffffffffffff1673ffffffffffffffffffffffffffffffffffffffff168152602001908152602001600020549050828110156108c3576040517f08c379a00000000000000000000000000000000000000000000000000000000081526004016108ba90612bea565b60405180910390fd5b6108d7856108cf61155b565b858403611563565b60019150509392505050565b6000806000838152602001908152602001600020600101549050919050565b61090b826108e3565b61091c8161091761155b565b6119b2565b6109268383611a4f565b505050565b60006012905090565b61093c61155b565b73ffffffffffffffffffffffffffffffffffffffff168173ffffffffffffffffffffffffffffffffffffffff16146109a9576040517f08c379a00000000000000000000000000000000000000000000000000000000081526004016109a090612c7c565b60405180910390fd5b6109b38282611a83565b5050565b6000610a596109c461155b565b8484600360006109d261155b565b73ffffffffffffffffffffffffffffffffffffffff1673ffffffffffffffffffffffffffffffffffffffff16815260200190815260200160002060008873ffffffffffffffffffffffffffffffffffffffff1673ffffffffffffffffffffffffffffffffffffffff16815260200190815260200160002054610a549190612ccb565b611563565b6001905092915050565b610a947f65d7a28e3265b37a6474929f336521b332c1681b933f6cb9f3376673440d862a610a8f61155b565b610dcf565b610ad3576040517f08c379a0000000000000000000000000000000000000000000000000000000008152600401610aca90612d93565b60405180910390fd5b610adb611ab7565b565b610b0e7f9f2df0fed2c77648de5860a4cc508cd0818c85b8b8a1ab4ceeef8d981c8956a6610b0961155b565b610dcf565b610b4d576040517f08c379a0000000000000000000000000000000000000000000000000000000008152600401610b4490612e25565b60405180910390fd5b610b578282611b59565b5050565b610b6c610b6661155b565b82611cba565b50565b6000600860009054906101000a900473ffffffffffffffffffffffffffffffffffffffff16905090565b6000600760009054906101000a900460ff16905090565b6000600260008373ffffffffffffffffffffffffffffffffffffffff1673ffffffffffffffffffffffffffffffffffffffff168152602001908152602001600020549050919050565b610c0161155b565b73ffffffffffffffffffffffffffffffffffffffff16610c1f610d76565b73ffffffffffffffffffffffffffffffffffffffff1614610c75576040517f08c379a0000000000000000000000000000000000000000000000000000000008152600401610c6c90612e91565b60405180910390fd5b610c7f6000611e93565b565b6000610c9483610c8f61155b565b6111c1565b905081811015610cd9576040517f08c379a0000000000000000000000000000000000000000000000000000000008152600401610cd090612f23565b60405180910390fd5b610ced83610ce561155b565b848403611563565b610cf78383611cba565b505050565b610d2d7f65d7a28e3265b37a6474929f336521b332c1681b933f6cb9f3376673440d862a610d2861155b565b610dcf565b610d6c576040517f08c379a0000000000000000000000000000000000000000000000000000000008152600401610d6390612fb5565b60405180910390fd5b610d74611f59565b565b6000600760019054906101000a900473ffffffffffffffffffffffffffffffffffffffff16905090565b6000610dc78260016000868152602001908152602001600020611ffc90919063ffffffff16565b905092915050565b600080600084815260200190815260200160002060000160008373ffffffffffffffffffffffffffffffffffffffff1673ffffffffffffffffffffffffffffffffffffffff16815260200190815260200160002060009054906101000a900460ff16905092915050565b606060068054610e4890612b46565b80601f0160208091040260200160405190810160405280929190818152602001828054610e7490612b46565b8015610ec15780601f10610e9657610100808354040283529160200191610ec1565b820191906000526020600020905b815481529060010190602001808311610ea457829003601f168201915b5050505050905090565b6000801b81565b60008060036000610ee161155b565b73ffffffffffffffffffffffffffffffffffffffff1673ffffffffffffffffffffffffffffffffffffffff16815260200190815260200160002060008573ffffffffffffffffffffffffffffffffffffffff1673ffffffffffffffffffffffffffffffffffffffff16815260200190815260200160002054905082811015610f9e576040517f08c379a0000000000000000000000000000000000000000000000000000000008152600401610f9590613047565b60405180910390fd5b610fb2610fa961155b565b85858403611563565b600191505092915050565b6000610fd1610fca61155b565b848461172e565b6001905092915050565b610fe361155b565b73ffffffffffffffffffffffffffffffffffffffff16611001610d76565b73ffffffffffffffffffffffffffffffffffffffff1614611057576040517f08c379a000000000000000000000000000000000000000000000000000000000815260040161104e90612e91565b60405180910390fd5b600073ffffffffffffffffffffffffffffffffffffffff16600860009054906101000a900473ffffffffffffffffffffffffffffffffffffffff1673ffffffffffffffffffffffffffffffffffffffff16146110dd576110dc6000801b600860009054906101000a900473ffffffffffffffffffffffffffffffffffffffff16611a83565b5b80600860006101000a81548173ffffffffffffffffffffffffffffffffffffffff021916908373ffffffffffffffffffffffffffffffffffffffff16021790555061114d6000801b600860009054906101000a900473ffffffffffffffffffffffffffffffffffffffff16611a4f565b50565b600061116d60016000848152602001908152602001600020612016565b9050919050565b7f9f2df0fed2c77648de5860a4cc508cd0818c85b8b8a1ab4ceeef8d981c8956a681565b6111a1826108e3565b6111b2816111ad61155b565b6119b2565b6111bc8383611a83565b505050565b6000600360008473ffffffffffffffffffffffffffffffffffffffff1673ffffffffffffffffffffffffffffffffffffffff16815260200190815260200160002060008373ffffffffffffffffffffffffffffffffffffffff1673ffffffffffffffffffffffffffffffffffffffff16815260200190815260200160002054905092915050565b7f65d7a28e3265b37a6474929f336521b332c1681b933f6cb9f3376673440d862a81565b61127461155b565b73ffffffffffffffffffffffffffffffffffffffff16611292610d76565b73ffffffffffffffffffffffffffffffffffffffff16146112e8576040517f08c379a00000000000000000000000000000000000000000000000000000000081526004016112df90612e91565b60405180910390fd5b600073ffffffffffffffffffffffffffffffffffffffff168173ffffffffffffffffffffffffffffffffffffffff161415611358576040517f08c379a000000000000000000000000000000000000000000000000000000000815260040161134f906130d9565b60405180910390fd5b61136181611e93565b50565b61136e8282610dcf565b61144057600160008084815260200190815260200160002060000160008373ffffffffffffffffffffffffffffffffffffffff1673ffffffffffffffffffffffffffffffffffffffff16815260200190815260200160002060006101000a81548160ff0219169083151502179055506113e561155b565b73ffffffffffffffffffffffffffffffffffffffff168173ffffffffffffffffffffffffffffffffffffffff16837f2f8788117e7eff1d82e926ec794901d17c78024a50270940304540a733656f0d60405160405180910390a45b5050565b600061146c836000018373ffffffffffffffffffffffffffffffffffffffff1660001b61202b565b905092915050565b61147f838383611484565b505050565b61148f8383836114dc565b611497610b99565b156114d7576040517f08c379a00000000000000000000000000000000000000000000000000000000081526004016114ce9061316b565b60405180910390fd5b505050565b505050565b60007f7965db0b000000000000000000000000000000000000000000000000000000007bffffffffffffffffffffffffffffffffffffffffffffffffffffffff1916827bffffffffffffffffffffffffffffffffffffffffffffffffffffffff1916148061155457506115538261209b565b5b9050919050565b600033905090565b600073ffffffffffffffffffffffffffffffffffffffff168373ffffffffffffffffffffffffffffffffffffffff1614156115d3576040517f08c379a00000000000000000000000000000000000000000000000000000000081526004016115ca906131fd565b60405180910390fd5b600073ffffffffffffffffffffffffffffffffffffffff168273ffffffffffffffffffffffffffffffffffffffff161415611643576040517f08c379a000000000000000000000000000000000000000000000000000000000815260040161163a9061328f565b60405180910390fd5b80600360008573ffffffffffffffffffffffffffffffffffffffff1673ffffffffffffffffffffffffffffffffffffffff16815260200190815260200160002060008473ffffffffffffffffffffffffffffffffffffffff1673ffffffffffffffffffffffffffffffffffffffff168152602001908152602001600020819055508173ffffffffffffffffffffffffffffffffffffffff168373ffffffffffffffffffffffffffffffffffffffff167f8c5be1e5ebec7d5bd14f71427d1e84f3dd0314c0f7b2291e5b200ac8c7c3b9258360405161172191906128d5565b60405180910390a3505050565b600073ffffffffffffffffffffffffffffffffffffffff168373ffffffffffffffffffffffffffffffffffffffff16141561179e576040517f08c379a000000000000000000000000000000000000000000000000000000000815260040161179590613321565b60405180910390fd5b600073ffffffffffffffffffffffffffffffffffffffff168273ffffffffffffffffffffffffffffffffffffffff16141561180e576040517f08c379a0000000000000000000000000000000000000000000000000000000008152600401611805906133b3565b60405180910390fd5b611819838383612105565b6000600260008573ffffffffffffffffffffffffffffffffffffffff1673ffffffffffffffffffffffffffffffffffffffff168152602001908152602001600020549050818110156118a0576040517f08c379a000000000000000000000000000000000000000000000000000000000815260040161189790613445565b60405180910390fd5b818103600260008673ffffffffffffffffffffffffffffffffffffffff1673ffffffffffffffffffffffffffffffffffffffff1681526020019081526020016000208190555081600260008573ffffffffffffffffffffffffffffffffffffffff1673ffffffffffffffffffffffffffffffffffffffff16815260200190815260200160002060008282546119359190612ccb565b925050819055508273ffffffffffffffffffffffffffffffffffffffff168473ffffffffffffffffffffffffffffffffffffffff167fddf252ad1be2c89b69c2b068fc378daa952ba7f163c4a11628f55a4df523b3ef8460405161199991906128d5565b60405180910390a36119ac84848461217e565b50505050565b6119bc8282610dcf565b611a4b576119e18173ffffffffffffffffffffffffffffffffffffffff166014612183565b6119ef8360001c6020612183565b604051602001611a00929190613539565b6040516020818303038152906040526040517f08c379a0000000000000000000000000000000000000000000000000000000008152600401611a42919061279c565b60405180910390fd5b5050565b611a598282611364565b611a7e816001600085815260200190815260200160002061144490919063ffffffff16565b505050565b611a8d82826123bf565b611ab281600160008581526020019081526020016000206124a090919063ffffffff16565b505050565b611abf610b99565b611afe576040517f08c379a0000000000000000000000000000000000000000000000000000000008152600401611af5906135bf565b60405180910390fd5b6000600760006101000a81548160ff0219169083151502179055507f5db9ee0a495bf2e6ff9c91a7834c1ba4fdd244a5e8aa4e537bd38aeae4b073aa611b4261155b565b604051611b4f9190612a4f565b60405180910390a1565b600073ffffffffffffffffffffffffffffffffffffffff168273ffffffffffffffffffffffffffffffffffffffff161415611bc9576040517f08c379a0000000000000000000000000000000000000000000000000000000008152600401611bc09061362b565b60405180910390fd5b611bd560008383612105565b8060046000828254611be79190612ccb565b9250508190555080600260008473ffffffffffffffffffffffffffffffffffffffff1673ffffffffffffffffffffffffffffffffffffffff1681526020019081526020016000206000828254611c3d9190612ccb565b925050819055508173ffffffffffffffffffffffffffffffffffffffff16600073ffffffffffffffffffffffffffffffffffffffff167fddf252ad1be2c89b69c2b068fc378daa952ba7f163c4a11628f55a4df523b3ef83604051611ca291906128d5565b60405180910390a3611cb66000838361217e565b5050565b600073ffffffffffffffffffffffffffffffffffffffff168273ffffffffffffffffffffffffffffffffffffffff161415611d2a576040517f08c379a0000000000000000000000000000000000000000000000000000000008152600401611d21906136bd565b60405180910390fd5b611d3682600083612105565b6000600260008473ffffffffffffffffffffffffffffffffffffffff1673ffffffffffffffffffffffffffffffffffffffff16815260200190815260200160002054905081811015611dbd576040517f08c379a0000000000000000000000000000000000000000000000000000000008152600401611db49061374f565b60405180910390fd5b818103600260008573ffffffffffffffffffffffffffffffffffffffff1673ffffffffffffffffffffffffffffffffffffffff168152602001908152602001600020819055508160046000828254611e15919061376f565b92505081905550600073ffffffffffffffffffffffffffffffffffffffff168373ffffffffffffffffffffffffffffffffffffffff167fddf252ad1be2c89b69c2b068fc378daa952ba7f163c4a11628f55a4df523b3ef84604051611e7a91906128d5565b60405180910390a3611e8e8360008461217e565b505050565b6000600760019054906101000a900473ffffffffffffffffffffffffffffffffffffffff16905081600760016101000a81548173ffffffffffffffffffffffffffffffffffffffff021916908373ffffffffffffffffffffffffffffffffffffffff1602179055508173ffffffffffffffffffffffffffffffffffffffff168173ffffffffffffffffffffffffffffffffffffffff167f8be0079c531659141344cd1fd0a4f28419497f9722a3daafe3b4186f6b6457e060405160405180910390a35050565b611f61610b99565b15611fa1576040517f08c379a0000000000000000000000000000000000000000000000000000000008152600401611f98906137ef565b60405180910390fd5b6001600760006101000a81548160ff0219169083151502179055507f62e78cea01bee320cd4e420270b5ea74000d11b0c9f74754ebdbfc544b05a258611fe561155b565b604051611ff29190612a4f565b60405180910390a1565b600061200b83600001836124d0565b60001c905092915050565b6000612024826000016124fb565b9050919050565b6000612037838361250c565b612090578260000182908060018154018082558091505060019003906000526020600020016000909190919091505582600001805490508360010160008481526020019081526020016000208190555060019050612095565b600090505b92915050565b60007f01ffc9a7000000000000000000000000000000000000000000000000000000007bffffffffffffffffffffffffffffffffffffffffffffffffffffffff1916827bffffffffffffffffffffffffffffffffffffffffffffffffffffffff1916149050919050565b612110838383611474565b61213a7fe799c73ff785ac053943f5d98452f7fa0bcf54da67826fc217d6094dec75c5ee83610dcf565b612179576040517f08c379a00000000000000000000000000000000000000000000000000000000081526004016121709061385b565b60405180910390fd5b505050565b505050565b606060006002836002612196919061387b565b6121a09190612ccb565b67ffffffffffffffff8111156121b9576121b86138d5565b5b6040519080825280601f01601f1916602001820160405280156121eb5781602001600182028036833780820191505090505b5090507f30000000000000000000000000000000000000000000000000000000000000008160008151811061222357612222613904565b5b60200101907effffffffffffffffffffffffffffffffffffffffffffffffffffffffffffff1916908160001a9053507f78000000000000000000000000000000000000000000000000000000000000008160018151811061228757612286613904565b5b60200101907effffffffffffffffffffffffffffffffffffffffffffffffffffffffffffff1916908160001a905350600060018460026122c7919061387b565b6122d19190612ccb565b90505b6001811115612371577f3031323334353637383961626364656600000000000000000000000000000000600f86166010811061231357612312613904565b5b1a60f81b82828151811061232a57612329613904565b5b60200101907effffffffffffffffffffffffffffffffffffffffffffffffffffffffffffff1916908160001a905350600485901c94508061236a90613933565b90506122d4565b50600084146123b5576040517f08c379a00000000000000000000000000000000000000000000000000000000081526004016123ac906139a9565b60405180910390fd5b8091505092915050565b6123c98282610dcf565b1561249c57600080600084815260200190815260200160002060000160008373ffffffffffffffffffffffffffffffffffffffff1673ffffffffffffffffffffffffffffffffffffffff16815260200190815260200160002060006101000a81548160ff02191690831515021790555061244161155b565b73ffffffffffffffffffffffffffffffffffffffff168173ffffffffffffffffffffffffffffffffffffffff16837ff6391f5c32d9c69d2a47ea670b442974b53935d1edc7fd64eb21e047a839171b60405160405180910390a45b5050565b60006124c8836000018373ffffffffffffffffffffffffffffffffffffffff1660001b61252f565b905092915050565b60008260000182815481106124e8576124e7613904565b5b9060005260206000200154905092915050565b600081600001805490509050919050565b600080836001016000848152602001908152602001600020541415905092915050565b60008083600101600084815260200190815260200160002054905060008114612637576000600182612561919061376f565b9050600060018660000180549050612579919061376f565b90508181146125e857600086600001828154811061259a57612599613904565b5b90600052602060002001549050808760000184815481106125be576125bd613904565b5b90600052602060002001819055508387600101600083815260200190815260200160002081905550505b856000018054806125fc576125fb6139c9565b5b60019003818190600052602060002001600090559055856001016000868152602001908152602001600020600090556001935050505061263d565b60009150505b92915050565b600080fd5b60007fffffffff0000000000000000000000000000000000000000000000000000000082169050919050565b61267d81612648565b811461268857600080fd5b50565b60008135905061269a81612674565b92915050565b6000602082840312156126b6576126b5612643565b5b60006126c48482850161268b565b91505092915050565b60008115159050919050565b6126e2816126cd565b82525050565b60006020820190506126fd60008301846126d9565b92915050565b600081519050919050565b600082825260208201905092915050565b60005b8381101561273d578082015181840152602081019050612722565b8381111561274c576000848401525b50505050565b6000601f19601f8301169050919050565b600061276e82612703565b612778818561270e565b935061278881856020860161271f565b61279181612752565b840191505092915050565b600060208201905081810360008301526127b68184612763565b905092915050565b600073ffffffffffffffffffffffffffffffffffffffff82169050919050565b60006127e9826127be565b9050919050565b6127f9816127de565b811461280457600080fd5b50565b600081359050612816816127f0565b92915050565b6000819050919050565b61282f8161281c565b811461283a57600080fd5b50565b60008135905061284c81612826565b92915050565b6000806040838503121561286957612868612643565b5b600061287785828601612807565b92505060206128888582860161283d565b9150509250929050565b6000819050919050565b6128a581612892565b82525050565b60006020820190506128c0600083018461289c565b92915050565b6128cf8161281c565b82525050565b60006020820190506128ea60008301846128c6565b92915050565b60008060006060848603121561290957612908612643565b5b600061291786828701612807565b935050602061292886828701612807565b92505060406129398682870161283d565b9150509250925092565b61294c81612892565b811461295757600080fd5b50565b60008135905061296981612943565b92915050565b60006020828403121561298557612984612643565b5b60006129938482850161295a565b91505092915050565b600080604083850312156129b3576129b2612643565b5b60006129c18582860161295a565b92505060206129d285828601612807565b9150509250929050565b600060ff82169050919050565b6129f2816129dc565b82525050565b6000602082019050612a0d60008301846129e9565b92915050565b600060208284031215612a2957612a28612643565b5b6000612a378482850161283d565b91505092915050565b612a49816127de565b82525050565b6000602082019050612a646000830184612a40565b92915050565b600060208284031215612a8057612a7f612643565b5b6000612a8e84828501612807565b91505092915050565b60008060408385031215612aae57612aad612643565b5b6000612abc8582860161295a565b9250506020612acd8582860161283d565b9150509250929050565b60008060408385031215612aee57612aed612643565b5b6000612afc85828601612807565b9250506020612b0d85828601612807565b9150509250929050565b7f4e487b7100000000000000000000000000000000000000000000000000000000600052602260045260246000fd5b60006002820490506001821680612b5e57607f821691505b60208210811415612b7257612b71612b17565b5b50919050565b7f45524332303a207472616e7366657220616d6f756e742065786365656473206160008201527f6c6c6f77616e6365000000000000000000000000000000000000000000000000602082015250565b6000612bd460288361270e565b9150612bdf82612b78565b604082019050919050565b60006020820190508181036000830152612c0381612bc7565b9050919050565b7f416363657373436f6e74726f6c3a2063616e206f6e6c792072656e6f756e636560008201527f20726f6c657320666f722073656c660000000000000000000000000000000000602082015250565b6000612c66602f8361270e565b9150612c7182612c0a565b604082019050919050565b60006020820190508181036000830152612c9581612c59565b9050919050565b7f4e487b7100000000000000000000000000000000000000000000000000000000600052601160045260246000fd5b6000612cd68261281c565b9150612ce18361281c565b9250827fffffffffffffffffffffffffffffffffffffffffffffffffffffffffffffffff03821115612d1657612d15612c9c565b5b828201905092915050565b7f45524332305072657365744d696e7465725061757365723a206d75737420686160008201527f76652070617573657220726f6c6520746f20756e706175736500000000000000602082015250565b6000612d7d60398361270e565b9150612d8882612d21565b604082019050919050565b60006020820190508181036000830152612dac81612d70565b9050919050565b7f45524332305072657365744d696e7465725061757365723a206d75737420686160008201527f7665206d696e74657220726f6c6520746f206d696e7400000000000000000000602082015250565b6000612e0f60368361270e565b9150612e1a82612db3565b604082019050919050565b60006020820190508181036000830152612e3e81612e02565b9050919050565b7f4f776e61626c653a2063616c6c6572206973206e6f7420746865206f776e6572600082015250565b6000612e7b60208361270e565b9150612e8682612e45565b602082019050919050565b60006020820190508181036000830152612eaa81612e6e565b9050919050565b7f45524332303a206275726e20616d6f756e74206578636565647320616c6c6f7760008201527f616e636500000000000000000000000000000000000000000000000000000000602082015250565b6000612f0d60248361270e565b9150612f1882612eb1565b604082019050919050565b60006020820190508181036000830152612f3c81612f00565b9050919050565b7f45524332305072657365744d696e7465725061757365723a206d75737420686160008201527f76652070617573657220726f6c6520746f207061757365000000000000000000602082015250565b6000612f9f60378361270e565b9150612faa82612f43565b604082019050919050565b60006020820190508181036000830152612fce81612f92565b9050919050565b7f45524332303a2064656372656173656420616c6c6f77616e63652062656c6f7760008201527f207a65726f000000000000000000000000000000000000000000000000000000602082015250565b600061303160258361270e565b915061303c82612fd5565b604082019050919050565b6000602082019050818103600083015261306081613024565b9050919050565b7f4f776e61626c653a206e6577206f776e657220697320746865207a65726f206160008201527f6464726573730000000000000000000000000000000000000000000000000000602082015250565b60006130c360268361270e565b91506130ce82613067565b604082019050919050565b600060208201905081810360008301526130f2816130b6565b9050919050565b7f45524332305061757361626c653a20746f6b656e207472616e7366657220776860008201527f696c652070617573656400000000000000000000000000000000000000000000602082015250565b6000613155602a8361270e565b9150613160826130f9565b604082019050919050565b6000602082019050818103600083015261318481613148565b9050919050565b7f45524332303a20617070726f76652066726f6d20746865207a65726f2061646460008201527f7265737300000000000000000000000000000000000000000000000000000000602082015250565b60006131e760248361270e565b91506131f28261318b565b604082019050919050565b60006020820190508181036000830152613216816131da565b9050919050565b7f45524332303a20617070726f766520746f20746865207a65726f20616464726560008201527f7373000000000000000000000000000000000000000000000000000000000000602082015250565b600061327960228361270e565b91506132848261321d565b604082019050919050565b600060208201905081810360008301526132a88161326c565b9050919050565b7f45524332303a207472616e736665722066726f6d20746865207a65726f20616460008201527f6472657373000000000000000000000000000000000000000000000000000000602082015250565b600061330b60258361270e565b9150613316826132af565b604082019050919050565b6000602082019050818103600083015261333a816132fe565b9050919050565b7f45524332303a207472616e7366657220746f20746865207a65726f206164647260008201527f6573730000000000000000000000000000000000000000000000000000000000602082015250565b600061339d60238361270e565b91506133a882613341565b604082019050919050565b600060208201905081810360008301526133cc81613390565b9050919050565b7f45524332303a207472616e7366657220616d6f756e742065786365656473206260008201527f616c616e63650000000000000000000000000000000000000000000000000000602082015250565b600061342f60268361270e565b915061343a826133d3565b604082019050919050565b6000602082019050818103600083015261345e81613422565b9050919050565b600081905092915050565b7f416363657373436f6e74726f6c3a206163636f756e7420000000000000000000600082015250565b60006134a6601783613465565b91506134b182613470565b601782019050919050565b60006134c782612703565b6134d18185613465565b93506134e181856020860161271f565b80840191505092915050565b7f206973206d697373696e6720726f6c6520000000000000000000000000000000600082015250565b6000613523601183613465565b915061352e826134ed565b601182019050919050565b600061354482613499565b915061355082856134bc565b915061355b82613516565b915061356782846134bc565b91508190509392505050565b7f5061757361626c653a206e6f7420706175736564000000000000000000000000600082015250565b60006135a960148361270e565b91506135b482613573565b602082019050919050565b600060208201905081810360008301526135d88161359c565b9050919050565b7f45524332303a206d696e7420746f20746865207a65726f206164647265737300600082015250565b6000613615601f8361270e565b9150613620826135df565b602082019050919050565b6000602082019050818103600083015261364481613608565b9050919050565b7f45524332303a206275726e2066726f6d20746865207a65726f2061646472657360008201527f7300000000000000000000000000000000000000000000000000000000000000602082015250565b60006136a760218361270e565b91506136b28261364b565b604082019050919050565b600060208201905081810360008301526136d68161369a565b9050919050565b7f45524332303a206275726e20616d6f756e7420657863656564732062616c616e60008201527f6365000000000000000000000000000000000000000000000000000000000000602082015250565b600061373960228361270e565b9150613744826136dd565b604082019050919050565b600060208201905081810360008301526137688161372c565b9050919050565b600061377a8261281c565b91506137858361281c565b92508282101561379857613797612c9c565b5b828203905092915050565b7f5061757361626c653a2070617573656400000000000000000000000000000000600082015250565b60006137d960108361270e565b91506137e4826137a3565b602082019050919050565b60006020820190508181036000830152613808816137cc565b9050919050565b7f496e76616c696420726563697069656e74000000000000000000000000000000600082015250565b600061384560118361270e565b91506138508261380f565b602082019050919050565b6000602082019050818103600083015261387481613838565b9050919050565b60006138868261281c565b91506138918361281c565b9250817fffffffffffffffffffffffffffffffffffffffffffffffffffffffffffffffff04831182151516156138ca576138c9612c9c565b5b828202905092915050565b7f4e487b7100000000000000000000000000000000000000000000000000000000600052604160045260246000fd5b7f4e487b7100000000000000000000000000000000000000000000000000000000600052603260045260246000fd5b600061393e8261281c565b9150600082141561395257613951612c9c565b5b600182039050919050565b7f537472696e67733a20686578206c656e67746820696e73756666696369656e74600082015250565b600061399360208361270e565b915061399e8261395d565b602082019050919050565b600060208201905081810360008301526139c281613986565b9050919050565b7f4e487b7100000000000000000000000000000000000000000000000000000000600052603160045260246000fdfea26469706673582212209f26e59ca06c75277646ddf74883fa056e88848173f3e2619244d525d8767daf64736f6c634300080a0033",
  "immutableReferences": {},
  "source": "// SPDX-License-Identifier: MIT\n/// @author Brian Lundin\npragma solidity 0.8.10;\n\nimport \"@openzeppelin/contracts/token/ERC20/presets/ERC20PresetMinterPauser.sol\";\nimport \"@openzeppelin/contracts/access/Ownable.sol\";\n\nimport \"../InvestmentPool.sol\";\n\n/// @title ExperimenDAO Token\ncontract ExperimenDAOToken is ERC20PresetMinterPauser, Ownable {\n  bytes32 public constant WHITELISTED = keccak256(\"WHITELISTED\");\n\n  InvestmentPool private investmentPool;\n\n  /**\n    * @dev The constructor uses the ERC20PresetMinterPauser\n    * @param _initialSupply is the starting supply of this token. This number can never be changed.\n    */\n  constructor(uint256 _initialSupply) ERC20PresetMinterPauser(\"ExperimenDAO\", \"EXD\") {\n    _grantRole(WHITELISTED, msg.sender);\n    _mint(msg.sender, _initialSupply * 10 ** 18);\n  }\n\n  function setInvestmentPool(address newPoolAddress) external onlyOwner {\n    if (address(investmentPool) != address(0x0)) {\n      _revokeRole(DEFAULT_ADMIN_ROLE, address(investmentPool));\n    } \n\n    investmentPool = InvestmentPool(newPoolAddress);\n    _grantRole(DEFAULT_ADMIN_ROLE, address(investmentPool));\n  }\n\n  function getInvestmentPool() external view returns (address) {\n    return address(investmentPool);\n  }\n\n  /**\n    * @dev This token can only be sent to address on the whitelist, as this is a private DAO.\n    */\n  function _beforeTokenTransfer(address from, address to, uint256 amount) internal virtual override {\n    super._beforeTokenTransfer(from, to, amount);\n    require(hasRole(WHITELISTED, to), \"Invalid recipient\");\n  }\n}",
  "sourcePath": "/Users/blundin/Developer/ethereum/ExperimenDAO/Contracts/contracts/tokens/ExperimenDAOToken.sol",
  "compiler": {
    "name": "solc",
    "version": "0.8.10+commit.fc410830.Emscripten.clang"
  },
  "schemaVersion": "3.4.4",
  "updatedAt": "2021-12-22T15:15:28.019Z",
  "devdoc": {
    "kind": "dev",
    "methods": {
      "allowance(address,address)": {
        "details": "See {IERC20-allowance}."
      },
      "approve(address,uint256)": {
        "details": "See {IERC20-approve}. Requirements: - `spender` cannot be the zero address."
      },
      "balanceOf(address)": {
        "details": "See {IERC20-balanceOf}."
      },
      "burn(uint256)": {
        "details": "Destroys `amount` tokens from the caller. See {ERC20-_burn}."
      },
      "burnFrom(address,uint256)": {
        "details": "Destroys `amount` tokens from `account`, deducting from the caller's allowance. See {ERC20-_burn} and {ERC20-allowance}. Requirements: - the caller must have allowance for ``accounts``'s tokens of at least `amount`."
      },
      "constructor": {
        "details": "The constructor uses the ERC20PresetMinterPauser",
        "params": {
          "_initialSupply": "is the starting supply of this token. This number can never be changed."
        }
      },
      "decimals()": {
        "details": "Returns the number of decimals used to get its user representation. For example, if `decimals` equals `2`, a balance of `505` tokens should be displayed to a user as `5.05` (`505 / 10 ** 2`). Tokens usually opt for a value of 18, imitating the relationship between Ether and Wei. This is the value {ERC20} uses, unless this function is overridden; NOTE: This information is only used for _display_ purposes: it in no way affects any of the arithmetic of the contract, including {IERC20-balanceOf} and {IERC20-transfer}."
      },
      "decreaseAllowance(address,uint256)": {
        "details": "Atomically decreases the allowance granted to `spender` by the caller. This is an alternative to {approve} that can be used as a mitigation for problems described in {IERC20-approve}. Emits an {Approval} event indicating the updated allowance. Requirements: - `spender` cannot be the zero address. - `spender` must have allowance for the caller of at least `subtractedValue`."
      },
      "getRoleAdmin(bytes32)": {
        "details": "Returns the admin role that controls `role`. See {grantRole} and {revokeRole}. To change a role's admin, use {_setRoleAdmin}."
      },
      "getRoleMember(bytes32,uint256)": {
        "details": "Returns one of the accounts that have `role`. `index` must be a value between 0 and {getRoleMemberCount}, non-inclusive. Role bearers are not sorted in any particular way, and their ordering may change at any point. WARNING: When using {getRoleMember} and {getRoleMemberCount}, make sure you perform all queries on the same block. See the following https://forum.openzeppelin.com/t/iterating-over-elements-on-enumerableset-in-openzeppelin-contracts/2296[forum post] for more information."
      },
      "getRoleMemberCount(bytes32)": {
        "details": "Returns the number of accounts that have `role`. Can be used together with {getRoleMember} to enumerate all bearers of a role."
      },
      "grantRole(bytes32,address)": {
        "details": "Grants `role` to `account`. If `account` had not been already granted `role`, emits a {RoleGranted} event. Requirements: - the caller must have ``role``'s admin role."
      },
      "hasRole(bytes32,address)": {
        "details": "Returns `true` if `account` has been granted `role`."
      },
      "increaseAllowance(address,uint256)": {
        "details": "Atomically increases the allowance granted to `spender` by the caller. This is an alternative to {approve} that can be used as a mitigation for problems described in {IERC20-approve}. Emits an {Approval} event indicating the updated allowance. Requirements: - `spender` cannot be the zero address."
      },
      "mint(address,uint256)": {
        "details": "Creates `amount` new tokens for `to`. See {ERC20-_mint}. Requirements: - the caller must have the `MINTER_ROLE`."
      },
      "name()": {
        "details": "Returns the name of the token."
      },
      "owner()": {
        "details": "Returns the address of the current owner."
      },
      "pause()": {
        "details": "Pauses all token transfers. See {ERC20Pausable} and {Pausable-_pause}. Requirements: - the caller must have the `PAUSER_ROLE`."
      },
      "paused()": {
        "details": "Returns true if the contract is paused, and false otherwise."
      },
      "renounceOwnership()": {
        "details": "Leaves the contract without owner. It will not be possible to call `onlyOwner` functions anymore. Can only be called by the current owner. NOTE: Renouncing ownership will leave the contract without an owner, thereby removing any functionality that is only available to the owner."
      },
      "renounceRole(bytes32,address)": {
        "details": "Revokes `role` from the calling account. Roles are often managed via {grantRole} and {revokeRole}: this function's purpose is to provide a mechanism for accounts to lose their privileges if they are compromised (such as when a trusted device is misplaced). If the calling account had been revoked `role`, emits a {RoleRevoked} event. Requirements: - the caller must be `account`."
      },
      "revokeRole(bytes32,address)": {
        "details": "Revokes `role` from `account`. If `account` had been granted `role`, emits a {RoleRevoked} event. Requirements: - the caller must have ``role``'s admin role."
      },
      "supportsInterface(bytes4)": {
        "details": "See {IERC165-supportsInterface}."
      },
      "symbol()": {
        "details": "Returns the symbol of the token, usually a shorter version of the name."
      },
      "totalSupply()": {
        "details": "See {IERC20-totalSupply}."
      },
      "transfer(address,uint256)": {
        "details": "See {IERC20-transfer}. Requirements: - `recipient` cannot be the zero address. - the caller must have a balance of at least `amount`."
      },
      "transferFrom(address,address,uint256)": {
        "details": "See {IERC20-transferFrom}. Emits an {Approval} event indicating the updated allowance. This is not required by the EIP. See the note at the beginning of {ERC20}. Requirements: - `sender` and `recipient` cannot be the zero address. - `sender` must have a balance of at least `amount`. - the caller must have allowance for ``sender``'s tokens of at least `amount`."
      },
      "transferOwnership(address)": {
        "details": "Transfers ownership of the contract to a new account (`newOwner`). Can only be called by the current owner."
      },
      "unpause()": {
        "details": "Unpauses all token transfers. See {ERC20Pausable} and {Pausable-_unpause}. Requirements: - the caller must have the `PAUSER_ROLE`."
      }
    },
    "title": "ExperimenDAO Token",
    "version": 1
  },
  "userdoc": {
    "kind": "user",
    "methods": {},
    "version": 1
  }
}