{
  "contractName": "InvestmentPool",
  "abi": [
    {
      "inputs": [
        {
          "internalType": "contract ExperimenDAOToken",
          "name": "_daoToken",
          "type": "address"
        }
      ],
      "stateMutability": "nonpayable",
      "type": "constructor"
    },
    {
      "anonymous": false,
      "inputs": [
        {
          "indexed": true,
          "internalType": "address",
          "name": "previousOwner",
          "type": "address"
        },
        {
          "indexed": true,
          "internalType": "address",
          "name": "newOwner",
          "type": "address"
        }
      ],
      "name": "OwnershipTransferred",
      "type": "event"
    },
    {
      "anonymous": false,
      "inputs": [
        {
          "indexed": true,
          "internalType": "bytes32",
          "name": "role",
          "type": "bytes32"
        },
        {
          "indexed": true,
          "internalType": "bytes32",
          "name": "previousAdminRole",
          "type": "bytes32"
        },
        {
          "indexed": true,
          "internalType": "bytes32",
          "name": "newAdminRole",
          "type": "bytes32"
        }
      ],
      "name": "RoleAdminChanged",
      "type": "event"
    },
    {
      "anonymous": false,
      "inputs": [
        {
          "indexed": true,
          "internalType": "bytes32",
          "name": "role",
          "type": "bytes32"
        },
        {
          "indexed": true,
          "internalType": "address",
          "name": "account",
          "type": "address"
        },
        {
          "indexed": true,
          "internalType": "address",
          "name": "sender",
          "type": "address"
        }
      ],
      "name": "RoleGranted",
      "type": "event"
    },
    {
      "anonymous": false,
      "inputs": [
        {
          "indexed": true,
          "internalType": "bytes32",
          "name": "role",
          "type": "bytes32"
        },
        {
          "indexed": true,
          "internalType": "address",
          "name": "account",
          "type": "address"
        },
        {
          "indexed": true,
          "internalType": "address",
          "name": "sender",
          "type": "address"
        }
      ],
      "name": "RoleRevoked",
      "type": "event"
    },
    {
      "inputs": [],
      "name": "ADMIN",
      "outputs": [
        {
          "internalType": "bytes32",
          "name": "",
          "type": "bytes32"
        }
      ],
      "stateMutability": "view",
      "type": "function"
    },
    {
      "inputs": [],
      "name": "DEFAULT_ADMIN_ROLE",
      "outputs": [
        {
          "internalType": "bytes32",
          "name": "",
          "type": "bytes32"
        }
      ],
      "stateMutability": "view",
      "type": "function"
    },
    {
      "inputs": [],
      "name": "FOUNDER",
      "outputs": [
        {
          "internalType": "bytes32",
          "name": "",
          "type": "bytes32"
        }
      ],
      "stateMutability": "view",
      "type": "function"
    },
    {
      "inputs": [],
      "name": "MEMBER",
      "outputs": [
        {
          "internalType": "bytes32",
          "name": "",
          "type": "bytes32"
        }
      ],
      "stateMutability": "view",
      "type": "function"
    },
    {
      "inputs": [
        {
          "internalType": "bytes32",
          "name": "role",
          "type": "bytes32"
        }
      ],
      "name": "getRoleAdmin",
      "outputs": [
        {
          "internalType": "bytes32",
          "name": "",
          "type": "bytes32"
        }
      ],
      "stateMutability": "view",
      "type": "function"
    },
    {
      "inputs": [
        {
          "internalType": "bytes32",
          "name": "role",
          "type": "bytes32"
        },
        {
          "internalType": "address",
          "name": "account",
          "type": "address"
        }
      ],
      "name": "grantRole",
      "outputs": [],
      "stateMutability": "nonpayable",
      "type": "function"
    },
    {
      "inputs": [
        {
          "internalType": "bytes32",
          "name": "role",
          "type": "bytes32"
        },
        {
          "internalType": "address",
          "name": "account",
          "type": "address"
        }
      ],
      "name": "hasRole",
      "outputs": [
        {
          "internalType": "bool",
          "name": "",
          "type": "bool"
        }
      ],
      "stateMutability": "view",
      "type": "function"
    },
    {
      "inputs": [],
      "name": "owner",
      "outputs": [
        {
          "internalType": "address",
          "name": "",
          "type": "address"
        }
      ],
      "stateMutability": "view",
      "type": "function"
    },
    {
      "inputs": [],
      "name": "renounceOwnership",
      "outputs": [],
      "stateMutability": "nonpayable",
      "type": "function"
    },
    {
      "inputs": [
        {
          "internalType": "bytes32",
          "name": "role",
          "type": "bytes32"
        },
        {
          "internalType": "address",
          "name": "account",
          "type": "address"
        }
      ],
      "name": "renounceRole",
      "outputs": [],
      "stateMutability": "nonpayable",
      "type": "function"
    },
    {
      "inputs": [
        {
          "internalType": "bytes32",
          "name": "role",
          "type": "bytes32"
        },
        {
          "internalType": "address",
          "name": "account",
          "type": "address"
        }
      ],
      "name": "revokeRole",
      "outputs": [],
      "stateMutability": "nonpayable",
      "type": "function"
    },
    {
      "inputs": [
        {
          "internalType": "bytes4",
          "name": "interfaceId",
          "type": "bytes4"
        }
      ],
      "name": "supportsInterface",
      "outputs": [
        {
          "internalType": "bool",
          "name": "",
          "type": "bool"
        }
      ],
      "stateMutability": "view",
      "type": "function"
    },
    {
      "inputs": [
        {
          "internalType": "address",
          "name": "newOwner",
          "type": "address"
        }
      ],
      "name": "transferOwnership",
      "outputs": [],
      "stateMutability": "nonpayable",
      "type": "function"
    },
    {
      "inputs": [
        {
          "internalType": "address",
          "name": "newFounder",
          "type": "address"
        }
      ],
      "name": "addFounder",
      "outputs": [],
      "stateMutability": "nonpayable",
      "type": "function"
    },
    {
      "inputs": [
        {
          "internalType": "address",
          "name": "account",
          "type": "address"
        }
      ],
      "name": "isFounder",
      "outputs": [
        {
          "internalType": "bool",
          "name": "",
          "type": "bool"
        }
      ],
      "stateMutability": "view",
      "type": "function"
    },
    {
      "inputs": [
        {
          "internalType": "address",
          "name": "newMember",
          "type": "address"
        }
      ],
      "name": "addMember",
      "outputs": [],
      "stateMutability": "nonpayable",
      "type": "function"
    },
    {
      "inputs": [
        {
          "internalType": "address",
          "name": "account",
          "type": "address"
        }
      ],
      "name": "isAdmin",
      "outputs": [
        {
          "internalType": "bool",
          "name": "",
          "type": "bool"
        }
      ],
      "stateMutability": "view",
      "type": "function"
    },
    {
      "inputs": [
        {
          "internalType": "address",
          "name": "account",
          "type": "address"
        }
      ],
      "name": "addAdmin",
      "outputs": [],
      "stateMutability": "nonpayable",
      "type": "function"
    },
    {
      "inputs": [],
      "name": "renounceAdmin",
      "outputs": [],
      "stateMutability": "nonpayable",
      "type": "function"
    }
  ],
  "bytecode": "0x60806040523480156200001157600080fd5b50604051620020e5380380620020e58339818101604052810190620000379190620004e9565b620000576200004b620001bf60201b60201c565b620001c760201b60201c565b6200006c6000801b336200028b60201b60201c565b6200009e7fdf8b4c520ffe197c5343c6f5aec59570151ef9a492f2c624fd45ddde6135ec42336200028b60201b60201c565b620000d37fdf8b4c520ffe197c5343c6f5aec59570151ef9a492f2c624fd45ddde6135ec426000801b6200037c60201b60201c565b620001257f75c8926d5f068ebc530646119a6c8b65785c321705e3a39f3f7898e9030b9c807fdf8b4c520ffe197c5343c6f5aec59570151ef9a492f2c624fd45ddde6135ec426200037c60201b60201c565b620001777fffa60083152bd11704a80cc8c7a409dad8aa74288b454a3ba0e94c0abc7cf1687fdf8b4c520ffe197c5343c6f5aec59570151ef9a492f2c624fd45ddde6135ec426200037c60201b60201c565b80600260006101000a81548173ffffffffffffffffffffffffffffffffffffffff021916908373ffffffffffffffffffffffffffffffffffffffff160217905550506200051b565b600033905090565b60008060009054906101000a900473ffffffffffffffffffffffffffffffffffffffff169050816000806101000a81548173ffffffffffffffffffffffffffffffffffffffff021916908373ffffffffffffffffffffffffffffffffffffffff1602179055508173ffffffffffffffffffffffffffffffffffffffff168173ffffffffffffffffffffffffffffffffffffffff167f8be0079c531659141344cd1fd0a4f28419497f9722a3daafe3b4186f6b6457e060405160405180910390a35050565b6200029d8282620003e060201b60201c565b6200037857600180600084815260200190815260200160002060000160008373ffffffffffffffffffffffffffffffffffffffff1673ffffffffffffffffffffffffffffffffffffffff16815260200190815260200160002060006101000a81548160ff0219169083151502179055506200031d620001bf60201b60201c565b73ffffffffffffffffffffffffffffffffffffffff168173ffffffffffffffffffffffffffffffffffffffff16837f2f8788117e7eff1d82e926ec794901d17c78024a50270940304540a733656f0d60405160405180910390a45b5050565b60006200038f836200044b60201b60201c565b90508160016000858152602001908152602001600020600101819055508181847fbd79b86ffe0ab8e8776151514217cd7cacd52c909f66475c3af44e129f0b00ff60405160405180910390a4505050565b60006001600084815260200190815260200160002060000160008373ffffffffffffffffffffffffffffffffffffffff1673ffffffffffffffffffffffffffffffffffffffff16815260200190815260200160002060009054906101000a900460ff16905092915050565b600060016000838152602001908152602001600020600101549050919050565b600080fd5b600073ffffffffffffffffffffffffffffffffffffffff82169050919050565b60006200049d8262000470565b9050919050565b6000620004b18262000490565b9050919050565b620004c381620004a4565b8114620004cf57600080fd5b50565b600081519050620004e381620004b8565b92915050565b6000602082840312156200050257620005016200046b565b5b60006200051284828501620004d2565b91505092915050565b611bba806200052b6000396000f3fe608060405234801561001057600080fd5b50600436106101215760003560e01c80638bad0c0a116100ad578063ca58f2d311610071578063ca58f2d3146102f6578063ca6d56dc14610314578063d547741f14610330578063ef4ec0471461034c578063f2fde38b1461036857610121565b80638bad0c0a146102505780638da5cb5b1461025a57806391d1485414610278578063a217fddf146102a8578063c7b57841146102c657610121565b80632a0acc6a116100f45780632a0acc6a146101d45780632f2ff15d146101f257806336568abe1461020e578063704802751461022a578063715018a61461024657610121565b806301ffc9a7146101265780631c681a4214610156578063248a9ca31461017457806324d7806c146101a4575b600080fd5b610140600480360381019061013b9190611392565b610384565b60405161014d91906113da565b60405180910390f35b61015e6103fe565b60405161016b919061140e565b60405180910390f35b61018e60048036038101906101899190611455565b610422565b60405161019b919061140e565b60405180910390f35b6101be60048036038101906101b991906114e0565b610442565b6040516101cb91906113da565b60405180910390f35b6101dc610475565b6040516101e9919061140e565b60405180910390f35b61020c6004803603810190610207919061150d565b610499565b005b6102286004803603810190610223919061150d565b6104c2565b005b610244600480360381019061023f91906114e0565b610545565b005b61024e6105ee565b005b610258610676565b005b6102626106a2565b60405161026f919061155c565b60405180910390f35b610292600480360381019061028d919061150d565b6106cb565b60405161029f91906113da565b60405180910390f35b6102b0610736565b6040516102bd919061140e565b60405180910390f35b6102e060048036038101906102db91906114e0565b61073d565b6040516102ed91906113da565b60405180910390f35b6102fe6107c5565b60405161030b919061140e565b60405180910390f35b61032e600480360381019061032991906114e0565b6107e9565b005b61034a6004803603810190610345919061150d565b6109d5565b005b610366600480360381019061036191906114e0565b6109fe565b005b610382600480360381019061037d91906114e0565b610c6c565b005b60007f7965db0b000000000000000000000000000000000000000000000000000000007bffffffffffffffffffffffffffffffffffffffffffffffffffffffff1916827bffffffffffffffffffffffffffffffffffffffffffffffffffffffff191614806103f757506103f682610d64565b5b9050919050565b7fffa60083152bd11704a80cc8c7a409dad8aa74288b454a3ba0e94c0abc7cf16881565b600060016000838152602001908152602001600020600101549050919050565b600061046e7fdf8b4c520ffe197c5343c6f5aec59570151ef9a492f2c624fd45ddde6135ec42836106cb565b9050919050565b7fdf8b4c520ffe197c5343c6f5aec59570151ef9a492f2c624fd45ddde6135ec4281565b6104a282610422565b6104b3816104ae610dce565b610dd6565b6104bd8383610e73565b505050565b6104ca610dce565b73ffffffffffffffffffffffffffffffffffffffff168173ffffffffffffffffffffffffffffffffffffffff1614610537576040517f08c379a000000000000000000000000000000000000000000000000000000000815260040161052e906115fa565b60405180910390fd5b6105418282610f53565b5050565b61054d610dce565b73ffffffffffffffffffffffffffffffffffffffff1661056b6106a2565b73ffffffffffffffffffffffffffffffffffffffff16146105c1576040517f08c379a00000000000000000000000000000000000000000000000000000000081526004016105b890611666565b60405180910390fd5b6105eb7fdf8b4c520ffe197c5343c6f5aec59570151ef9a492f2c624fd45ddde6135ec4282610e73565b50565b6105f6610dce565b73ffffffffffffffffffffffffffffffffffffffff166106146106a2565b73ffffffffffffffffffffffffffffffffffffffff161461066a576040517f08c379a000000000000000000000000000000000000000000000000000000000815260040161066190611666565b60405180910390fd5b6106746000611035565b565b6106a07fdf8b4c520ffe197c5343c6f5aec59570151ef9a492f2c624fd45ddde6135ec42336104c2565b565b60008060009054906101000a900473ffffffffffffffffffffffffffffffffffffffff16905090565b60006001600084815260200190815260200160002060000160008373ffffffffffffffffffffffffffffffffffffffff1673ffffffffffffffffffffffffffffffffffffffff16815260200190815260200160002060009054906101000a900460ff16905092915050565b6000801b81565b6000600360008373ffffffffffffffffffffffffffffffffffffffff1673ffffffffffffffffffffffffffffffffffffffff16815260200190815260200160002060009054906101000a900460ff1680156107be57506107bd7f75c8926d5f068ebc530646119a6c8b65785c321705e3a39f3f7898e9030b9c80836106cb565b5b9050919050565b7f75c8926d5f068ebc530646119a6c8b65785c321705e3a39f3f7898e9030b9c8081565b6107f233610442565b610831576040517f08c379a0000000000000000000000000000000000000000000000000000000008152600401610828906116d2565b60405180910390fd5b61085b7fffa60083152bd11704a80cc8c7a409dad8aa74288b454a3ba0e94c0abc7cf16882610e73565b600260009054906101000a900473ffffffffffffffffffffffffffffffffffffffff1673ffffffffffffffffffffffffffffffffffffffff16632f2ff15d600260009054906101000a900473ffffffffffffffffffffffffffffffffffffffff1673ffffffffffffffffffffffffffffffffffffffff16630b71f1166040518163ffffffff1660e01b8152600401602060405180830381865afa158015610906573d6000803e3d6000fd5b505050506040513d601f19601f8201168201806040525081019061092a9190611707565b836040518363ffffffff1660e01b8152600401610948929190611734565b600060405180830381600087803b15801561096257600080fd5b505af1158015610976573d6000803e3d6000fd5b505050506001600460008373ffffffffffffffffffffffffffffffffffffffff1673ffffffffffffffffffffffffffffffffffffffff16815260200190815260200160002060006101000a81548160ff02191690831515021790555050565b6109de82610422565b6109ef816109ea610dce565b610dd6565b6109f98383610f53565b505050565b610a0733610442565b610a46576040517f08c379a0000000000000000000000000000000000000000000000000000000008152600401610a3d906116d2565b60405180910390fd5b610a707f75c8926d5f068ebc530646119a6c8b65785c321705e3a39f3f7898e9030b9c8082610e73565b6001600360008373ffffffffffffffffffffffffffffffffffffffff1673ffffffffffffffffffffffffffffffffffffffff16815260200190815260200160002060006101000a81548160ff021916908315150217905550610af27fffa60083152bd11704a80cc8c7a409dad8aa74288b454a3ba0e94c0abc7cf16882610e73565b600260009054906101000a900473ffffffffffffffffffffffffffffffffffffffff1673ffffffffffffffffffffffffffffffffffffffff16632f2ff15d600260009054906101000a900473ffffffffffffffffffffffffffffffffffffffff1673ffffffffffffffffffffffffffffffffffffffff16630b71f1166040518163ffffffff1660e01b8152600401602060405180830381865afa158015610b9d573d6000803e3d6000fd5b505050506040513d601f19601f82011682018060405250810190610bc19190611707565b836040518363ffffffff1660e01b8152600401610bdf929190611734565b600060405180830381600087803b158015610bf957600080fd5b505af1158015610c0d573d6000803e3d6000fd5b505050506001600460008373ffffffffffffffffffffffffffffffffffffffff1673ffffffffffffffffffffffffffffffffffffffff16815260200190815260200160002060006101000a81548160ff02191690831515021790555050565b610c74610dce565b73ffffffffffffffffffffffffffffffffffffffff16610c926106a2565b73ffffffffffffffffffffffffffffffffffffffff1614610ce8576040517f08c379a0000000000000000000000000000000000000000000000000000000008152600401610cdf90611666565b60405180910390fd5b600073ffffffffffffffffffffffffffffffffffffffff168173ffffffffffffffffffffffffffffffffffffffff161415610d58576040517f08c379a0000000000000000000000000000000000000000000000000000000008152600401610d4f906117cf565b60405180910390fd5b610d6181611035565b50565b60007f01ffc9a7000000000000000000000000000000000000000000000000000000007bffffffffffffffffffffffffffffffffffffffffffffffffffffffff1916827bffffffffffffffffffffffffffffffffffffffffffffffffffffffff1916149050919050565b600033905090565b610de082826106cb565b610e6f57610e058173ffffffffffffffffffffffffffffffffffffffff1660146110f9565b610e138360001c60206110f9565b604051602001610e24929190611901565b6040516020818303038152906040526040517f08c379a0000000000000000000000000000000000000000000000000000000008152600401610e669190611985565b60405180910390fd5b5050565b610e7d82826106cb565b610f4f57600180600084815260200190815260200160002060000160008373ffffffffffffffffffffffffffffffffffffffff1673ffffffffffffffffffffffffffffffffffffffff16815260200190815260200160002060006101000a81548160ff021916908315150217905550610ef4610dce565b73ffffffffffffffffffffffffffffffffffffffff168173ffffffffffffffffffffffffffffffffffffffff16837f2f8788117e7eff1d82e926ec794901d17c78024a50270940304540a733656f0d60405160405180910390a45b5050565b610f5d82826106cb565b156110315760006001600084815260200190815260200160002060000160008373ffffffffffffffffffffffffffffffffffffffff1673ffffffffffffffffffffffffffffffffffffffff16815260200190815260200160002060006101000a81548160ff021916908315150217905550610fd6610dce565b73ffffffffffffffffffffffffffffffffffffffff168173ffffffffffffffffffffffffffffffffffffffff16837ff6391f5c32d9c69d2a47ea670b442974b53935d1edc7fd64eb21e047a839171b60405160405180910390a45b5050565b60008060009054906101000a900473ffffffffffffffffffffffffffffffffffffffff169050816000806101000a81548173ffffffffffffffffffffffffffffffffffffffff021916908373ffffffffffffffffffffffffffffffffffffffff1602179055508173ffffffffffffffffffffffffffffffffffffffff168173ffffffffffffffffffffffffffffffffffffffff167f8be0079c531659141344cd1fd0a4f28419497f9722a3daafe3b4186f6b6457e060405160405180910390a35050565b60606000600283600261110c91906119e0565b6111169190611a3a565b67ffffffffffffffff81111561112f5761112e611a90565b5b6040519080825280601f01601f1916602001820160405280156111615781602001600182028036833780820191505090505b5090507f30000000000000000000000000000000000000000000000000000000000000008160008151811061119957611198611abf565b5b60200101907effffffffffffffffffffffffffffffffffffffffffffffffffffffffffffff1916908160001a9053507f7800000000000000000000000000000000000000000000000000000000000000816001815181106111fd576111fc611abf565b5b60200101907effffffffffffffffffffffffffffffffffffffffffffffffffffffffffffff1916908160001a9053506000600184600261123d91906119e0565b6112479190611a3a565b90505b60018111156112e7577f3031323334353637383961626364656600000000000000000000000000000000600f86166010811061128957611288611abf565b5b1a60f81b8282815181106112a05761129f611abf565b5b60200101907effffffffffffffffffffffffffffffffffffffffffffffffffffffffffffff1916908160001a905350600485901c9450806112e090611aee565b905061124a565b506000841461132b576040517f08c379a000000000000000000000000000000000000000000000000000000000815260040161132290611b64565b60405180910390fd5b8091505092915050565b600080fd5b60007fffffffff0000000000000000000000000000000000000000000000000000000082169050919050565b61136f8161133a565b811461137a57600080fd5b50565b60008135905061138c81611366565b92915050565b6000602082840312156113a8576113a7611335565b5b60006113b68482850161137d565b91505092915050565b60008115159050919050565b6113d4816113bf565b82525050565b60006020820190506113ef60008301846113cb565b92915050565b6000819050919050565b611408816113f5565b82525050565b600060208201905061142360008301846113ff565b92915050565b611432816113f5565b811461143d57600080fd5b50565b60008135905061144f81611429565b92915050565b60006020828403121561146b5761146a611335565b5b600061147984828501611440565b91505092915050565b600073ffffffffffffffffffffffffffffffffffffffff82169050919050565b60006114ad82611482565b9050919050565b6114bd816114a2565b81146114c857600080fd5b50565b6000813590506114da816114b4565b92915050565b6000602082840312156114f6576114f5611335565b5b6000611504848285016114cb565b91505092915050565b6000806040838503121561152457611523611335565b5b600061153285828601611440565b9250506020611543858286016114cb565b9150509250929050565b611556816114a2565b82525050565b6000602082019050611571600083018461154d565b92915050565b600082825260208201905092915050565b7f416363657373436f6e74726f6c3a2063616e206f6e6c792072656e6f756e636560008201527f20726f6c657320666f722073656c660000000000000000000000000000000000602082015250565b60006115e4602f83611577565b91506115ef82611588565b604082019050919050565b60006020820190508181036000830152611613816115d7565b9050919050565b7f4f776e61626c653a2063616c6c6572206973206e6f7420746865206f776e6572600082015250565b6000611650602083611577565b915061165b8261161a565b602082019050919050565b6000602082019050818103600083015261167f81611643565b9050919050565b7f5265737472696374656420746f2061646d696e732e0000000000000000000000600082015250565b60006116bc601583611577565b91506116c782611686565b602082019050919050565b600060208201905081810360008301526116eb816116af565b9050919050565b60008151905061170181611429565b92915050565b60006020828403121561171d5761171c611335565b5b600061172b848285016116f2565b91505092915050565b600060408201905061174960008301856113ff565b611756602083018461154d565b9392505050565b7f4f776e61626c653a206e6577206f776e657220697320746865207a65726f206160008201527f6464726573730000000000000000000000000000000000000000000000000000602082015250565b60006117b9602683611577565b91506117c48261175d565b604082019050919050565b600060208201905081810360008301526117e8816117ac565b9050919050565b600081905092915050565b7f416363657373436f6e74726f6c3a206163636f756e7420000000000000000000600082015250565b60006118306017836117ef565b915061183b826117fa565b601782019050919050565b600081519050919050565b60005b8381101561186f578082015181840152602081019050611854565b8381111561187e576000848401525b50505050565b600061188f82611846565b61189981856117ef565b93506118a9818560208601611851565b80840191505092915050565b7f206973206d697373696e6720726f6c6520000000000000000000000000000000600082015250565b60006118eb6011836117ef565b91506118f6826118b5565b601182019050919050565b600061190c82611823565b91506119188285611884565b9150611923826118de565b915061192f8284611884565b91508190509392505050565b6000601f19601f8301169050919050565b600061195782611846565b6119618185611577565b9350611971818560208601611851565b61197a8161193b565b840191505092915050565b6000602082019050818103600083015261199f818461194c565b905092915050565b6000819050919050565b7f4e487b7100000000000000000000000000000000000000000000000000000000600052601160045260246000fd5b60006119eb826119a7565b91506119f6836119a7565b9250817fffffffffffffffffffffffffffffffffffffffffffffffffffffffffffffffff0483118215151615611a2f57611a2e6119b1565b5b828202905092915050565b6000611a45826119a7565b9150611a50836119a7565b9250827fffffffffffffffffffffffffffffffffffffffffffffffffffffffffffffffff03821115611a8557611a846119b1565b5b828201905092915050565b7f4e487b7100000000000000000000000000000000000000000000000000000000600052604160045260246000fd5b7f4e487b7100000000000000000000000000000000000000000000000000000000600052603260045260246000fd5b6000611af9826119a7565b91506000821415611b0d57611b0c6119b1565b5b600182039050919050565b7f537472696e67733a20686578206c656e67746820696e73756666696369656e74600082015250565b6000611b4e602083611577565b9150611b5982611b18565b602082019050919050565b60006020820190508181036000830152611b7d81611b41565b905091905056fea2646970667358221220dc8efae17df0a2b239a38af95fefca086c6642e5c088993247c95627071a822a64736f6c634300080a0033",
  "immutableReferences": {},
  "source": "// SPDX-License-Identifier: MIT\n/// @author Brian Lundin\npragma solidity 0.8.10;\n\nimport \"@openzeppelin/contracts/access/Ownable.sol\";\nimport \"@openzeppelin/contracts/access/AccessControl.sol\";\n\nimport \"./tokens/ExperimenDAOToken.sol\";\n\n/**\n  * @title InvestmentPool\n  * @notice This contract is the interface for investors and coordinates investment activity.\n  */ \ncontract InvestmentPool is Ownable, AccessControl {\n  bytes32 public constant FOUNDER = keccak256(\"FOUNDER\");\n  bytes32 public constant MEMBER = keccak256(\"MEMBER\");\n  bytes32 public constant ADMIN = keccak256(\"ADMIN\");\n\n  ExperimenDAOToken private daoToken;\n  mapping(address => bool) founders;\n  mapping(address => bool) members;\n\n  constructor(ExperimenDAOToken _daoToken) {\n    _grantRole(DEFAULT_ADMIN_ROLE, msg.sender);\n    _grantRole(ADMIN, msg.sender);\n    \n    _setRoleAdmin(ADMIN, DEFAULT_ADMIN_ROLE);\n    _setRoleAdmin(FOUNDER, ADMIN);\n    _setRoleAdmin(MEMBER, ADMIN);\n    \n    daoToken = _daoToken;\n  }\n\n  // FOUNDER functions\n  function addFounder(address newFounder) public onlyAdmin {\n    _grantRole(FOUNDER, newFounder);\n    founders[newFounder] = true;\n\n    _grantRole(MEMBER, newFounder);\n    daoToken.grantRole(daoToken.WHITELISTED(), newFounder);\n    members[newFounder] = true;\n  }\n\n  modifier onlyFounder() { \n    require(isFounder(msg.sender) && founders[msg.sender], \"Restricted to founders.\" );\n    _;\n  }\n\n  function isFounder(address account) public view returns (bool) {\n    return founders[account] && hasRole(FOUNDER, account);\n  }\n\n  // MEMBER functions\n  function addMember(address newMember) public onlyAdmin {\n    _grantRole(MEMBER, newMember);\n    daoToken.grantRole(daoToken.WHITELISTED(), newMember);\n    members[newMember] = true;\n  }\n\n  // ADMIN functions\n  modifier onlyAdmin() {\n    require(isAdmin(msg.sender), \"Restricted to admins.\");\n    _;\n  }\n\n  function isAdmin(address account) public virtual view returns (bool) {\n    return hasRole(ADMIN, account);\n  }\n\n  function addAdmin(address account) public virtual onlyOwner {\n    _grantRole(ADMIN, account);\n  }\n\n  function renounceAdmin() public virtual {\n    renounceRole(ADMIN, msg.sender);\n  }\n}",
  "sourcePath": "/Users/blundin/Developer/ethereum/ExperimenDAO/Contracts/contracts/InvestmentPool.sol",
  "compiler": {
    "name": "solc",
    "version": "0.8.10+commit.fc410830.Emscripten.clang"
  },
  "schemaVersion": "3.4.4",
  "updatedAt": "2021-12-22T15:15:28.013Z",
  "devdoc": {
    "kind": "dev",
    "methods": {
      "getRoleAdmin(bytes32)": {
        "details": "Returns the admin role that controls `role`. See {grantRole} and {revokeRole}. To change a role's admin, use {_setRoleAdmin}."
      },
      "grantRole(bytes32,address)": {
        "details": "Grants `role` to `account`. If `account` had not been already granted `role`, emits a {RoleGranted} event. Requirements: - the caller must have ``role``'s admin role."
      },
      "hasRole(bytes32,address)": {
        "details": "Returns `true` if `account` has been granted `role`."
      },
      "owner()": {
        "details": "Returns the address of the current owner."
      },
      "renounceOwnership()": {
        "details": "Leaves the contract without owner. It will not be possible to call `onlyOwner` functions anymore. Can only be called by the current owner. NOTE: Renouncing ownership will leave the contract without an owner, thereby removing any functionality that is only available to the owner."
      },
      "renounceRole(bytes32,address)": {
        "details": "Revokes `role` from the calling account. Roles are often managed via {grantRole} and {revokeRole}: this function's purpose is to provide a mechanism for accounts to lose their privileges if they are compromised (such as when a trusted device is misplaced). If the calling account had been revoked `role`, emits a {RoleRevoked} event. Requirements: - the caller must be `account`."
      },
      "revokeRole(bytes32,address)": {
        "details": "Revokes `role` from `account`. If `account` had been granted `role`, emits a {RoleRevoked} event. Requirements: - the caller must have ``role``'s admin role."
      },
      "supportsInterface(bytes4)": {
        "details": "See {IERC165-supportsInterface}."
      },
      "transferOwnership(address)": {
        "details": "Transfers ownership of the contract to a new account (`newOwner`). Can only be called by the current owner."
      }
    },
    "title": "InvestmentPool",
    "version": 1
  },
  "userdoc": {
    "kind": "user",
    "methods": {},
    "notice": "This contract is the interface for investors and coordinates investment activity.",
    "version": 1
  }
}