{
  "contractName": "InvestmentPool",
  "abi": [
    {
      "inputs": [
        {
          "internalType": "contract ExperimenDAOToken",
          "name": "_daoToken",
          "type": "address"
        }
      ],
      "stateMutability": "nonpayable",
      "type": "constructor"
    },
    {
      "anonymous": false,
      "inputs": [
        {
          "indexed": true,
          "internalType": "address",
          "name": "previousOwner",
          "type": "address"
        },
        {
          "indexed": true,
          "internalType": "address",
          "name": "newOwner",
          "type": "address"
        }
      ],
      "name": "OwnershipTransferred",
      "type": "event"
    },
    {
      "anonymous": false,
      "inputs": [
        {
          "indexed": true,
          "internalType": "bytes32",
          "name": "role",
          "type": "bytes32"
        },
        {
          "indexed": true,
          "internalType": "bytes32",
          "name": "previousAdminRole",
          "type": "bytes32"
        },
        {
          "indexed": true,
          "internalType": "bytes32",
          "name": "newAdminRole",
          "type": "bytes32"
        }
      ],
      "name": "RoleAdminChanged",
      "type": "event"
    },
    {
      "anonymous": false,
      "inputs": [
        {
          "indexed": true,
          "internalType": "bytes32",
          "name": "role",
          "type": "bytes32"
        },
        {
          "indexed": true,
          "internalType": "address",
          "name": "account",
          "type": "address"
        },
        {
          "indexed": true,
          "internalType": "address",
          "name": "sender",
          "type": "address"
        }
      ],
      "name": "RoleGranted",
      "type": "event"
    },
    {
      "anonymous": false,
      "inputs": [
        {
          "indexed": true,
          "internalType": "bytes32",
          "name": "role",
          "type": "bytes32"
        },
        {
          "indexed": true,
          "internalType": "address",
          "name": "account",
          "type": "address"
        },
        {
          "indexed": true,
          "internalType": "address",
          "name": "sender",
          "type": "address"
        }
      ],
      "name": "RoleRevoked",
      "type": "event"
    },
    {
      "inputs": [],
      "name": "ADMIN",
      "outputs": [
        {
          "internalType": "bytes32",
          "name": "",
          "type": "bytes32"
        }
      ],
      "stateMutability": "view",
      "type": "function"
    },
    {
      "inputs": [],
      "name": "DEFAULT_ADMIN_ROLE",
      "outputs": [
        {
          "internalType": "bytes32",
          "name": "",
          "type": "bytes32"
        }
      ],
      "stateMutability": "view",
      "type": "function"
    },
    {
      "inputs": [],
      "name": "FOUNDER",
      "outputs": [
        {
          "internalType": "bytes32",
          "name": "",
          "type": "bytes32"
        }
      ],
      "stateMutability": "view",
      "type": "function"
    },
    {
      "inputs": [],
      "name": "MEMBER",
      "outputs": [
        {
          "internalType": "bytes32",
          "name": "",
          "type": "bytes32"
        }
      ],
      "stateMutability": "view",
      "type": "function"
    },
    {
      "inputs": [
        {
          "internalType": "bytes32",
          "name": "role",
          "type": "bytes32"
        }
      ],
      "name": "getRoleAdmin",
      "outputs": [
        {
          "internalType": "bytes32",
          "name": "",
          "type": "bytes32"
        }
      ],
      "stateMutability": "view",
      "type": "function"
    },
    {
      "inputs": [
        {
          "internalType": "bytes32",
          "name": "role",
          "type": "bytes32"
        },
        {
          "internalType": "address",
          "name": "account",
          "type": "address"
        }
      ],
      "name": "grantRole",
      "outputs": [],
      "stateMutability": "nonpayable",
      "type": "function"
    },
    {
      "inputs": [
        {
          "internalType": "bytes32",
          "name": "role",
          "type": "bytes32"
        },
        {
          "internalType": "address",
          "name": "account",
          "type": "address"
        }
      ],
      "name": "hasRole",
      "outputs": [
        {
          "internalType": "bool",
          "name": "",
          "type": "bool"
        }
      ],
      "stateMutability": "view",
      "type": "function"
    },
    {
      "inputs": [],
      "name": "owner",
      "outputs": [
        {
          "internalType": "address",
          "name": "",
          "type": "address"
        }
      ],
      "stateMutability": "view",
      "type": "function"
    },
    {
      "inputs": [],
      "name": "renounceOwnership",
      "outputs": [],
      "stateMutability": "nonpayable",
      "type": "function"
    },
    {
      "inputs": [
        {
          "internalType": "bytes32",
          "name": "role",
          "type": "bytes32"
        },
        {
          "internalType": "address",
          "name": "account",
          "type": "address"
        }
      ],
      "name": "renounceRole",
      "outputs": [],
      "stateMutability": "nonpayable",
      "type": "function"
    },
    {
      "inputs": [
        {
          "internalType": "bytes32",
          "name": "role",
          "type": "bytes32"
        },
        {
          "internalType": "address",
          "name": "account",
          "type": "address"
        }
      ],
      "name": "revokeRole",
      "outputs": [],
      "stateMutability": "nonpayable",
      "type": "function"
    },
    {
      "inputs": [
        {
          "internalType": "bytes4",
          "name": "interfaceId",
          "type": "bytes4"
        }
      ],
      "name": "supportsInterface",
      "outputs": [
        {
          "internalType": "bool",
          "name": "",
          "type": "bool"
        }
      ],
      "stateMutability": "view",
      "type": "function"
    },
    {
      "inputs": [
        {
          "internalType": "address",
          "name": "newOwner",
          "type": "address"
        }
      ],
      "name": "transferOwnership",
      "outputs": [],
      "stateMutability": "nonpayable",
      "type": "function"
    },
    {
      "inputs": [
        {
          "internalType": "address",
          "name": "newFounder",
          "type": "address"
        }
      ],
      "name": "addFounder",
      "outputs": [],
      "stateMutability": "nonpayable",
      "type": "function"
    },
    {
      "inputs": [
        {
          "internalType": "address",
          "name": "account",
          "type": "address"
        }
      ],
      "name": "isFounder",
      "outputs": [
        {
          "internalType": "bool",
          "name": "",
          "type": "bool"
        }
      ],
      "stateMutability": "view",
      "type": "function"
    },
    {
      "inputs": [
        {
          "internalType": "address",
          "name": "newMember",
          "type": "address"
        }
      ],
      "name": "addMember",
      "outputs": [],
      "stateMutability": "nonpayable",
      "type": "function"
    },
    {
      "inputs": [
        {
          "internalType": "address",
          "name": "account",
          "type": "address"
        }
      ],
      "name": "isAdmin",
      "outputs": [
        {
          "internalType": "bool",
          "name": "",
          "type": "bool"
        }
      ],
      "stateMutability": "view",
      "type": "function"
    },
    {
      "inputs": [
        {
          "internalType": "address",
          "name": "account",
          "type": "address"
        }
      ],
      "name": "addAdmin",
      "outputs": [],
      "stateMutability": "nonpayable",
      "type": "function"
    },
    {
      "inputs": [],
      "name": "renounceAdmin",
      "outputs": [],
      "stateMutability": "nonpayable",
      "type": "function"
    }
  ],
  "bytecode": "0x60806040523480156200001157600080fd5b5060405162001e9a38038062001e9a833981810160405281019062000037919062000497565b620000576200004b6200016d60201b60201c565b6200017560201b60201c565b6200006c6000801b336200023960201b60201c565b620000a17fdf8b4c520ffe197c5343c6f5aec59570151ef9a492f2c624fd45ddde6135ec426000801b6200032a60201b60201c565b620000f37f75c8926d5f068ebc530646119a6c8b65785c321705e3a39f3f7898e9030b9c807fdf8b4c520ffe197c5343c6f5aec59570151ef9a492f2c624fd45ddde6135ec426200032a60201b60201c565b620001257fdf8b4c520ffe197c5343c6f5aec59570151ef9a492f2c624fd45ddde6135ec42336200023960201b60201c565b80600260006101000a81548173ffffffffffffffffffffffffffffffffffffffff021916908373ffffffffffffffffffffffffffffffffffffffff16021790555050620004c9565b600033905090565b60008060009054906101000a900473ffffffffffffffffffffffffffffffffffffffff169050816000806101000a81548173ffffffffffffffffffffffffffffffffffffffff021916908373ffffffffffffffffffffffffffffffffffffffff1602179055508173ffffffffffffffffffffffffffffffffffffffff168173ffffffffffffffffffffffffffffffffffffffff167f8be0079c531659141344cd1fd0a4f28419497f9722a3daafe3b4186f6b6457e060405160405180910390a35050565b6200024b82826200038e60201b60201c565b6200032657600180600084815260200190815260200160002060000160008373ffffffffffffffffffffffffffffffffffffffff1673ffffffffffffffffffffffffffffffffffffffff16815260200190815260200160002060006101000a81548160ff021916908315150217905550620002cb6200016d60201b60201c565b73ffffffffffffffffffffffffffffffffffffffff168173ffffffffffffffffffffffffffffffffffffffff16837f2f8788117e7eff1d82e926ec794901d17c78024a50270940304540a733656f0d60405160405180910390a45b5050565b60006200033d83620003f960201b60201c565b90508160016000858152602001908152602001600020600101819055508181847fbd79b86ffe0ab8e8776151514217cd7cacd52c909f66475c3af44e129f0b00ff60405160405180910390a4505050565b60006001600084815260200190815260200160002060000160008373ffffffffffffffffffffffffffffffffffffffff1673ffffffffffffffffffffffffffffffffffffffff16815260200190815260200160002060009054906101000a900460ff16905092915050565b600060016000838152602001908152602001600020600101549050919050565b600080fd5b600073ffffffffffffffffffffffffffffffffffffffff82169050919050565b60006200044b826200041e565b9050919050565b60006200045f826200043e565b9050919050565b620004718162000452565b81146200047d57600080fd5b50565b600081519050620004918162000466565b92915050565b600060208284031215620004b057620004af62000419565b5b6000620004c08482850162000480565b91505092915050565b6119c180620004d96000396000f3fe608060405234801561001057600080fd5b50600436106101215760003560e01c80638bad0c0a116100ad578063ca58f2d311610071578063ca58f2d3146102f6578063ca6d56dc14610314578063d547741f14610330578063ef4ec0471461034c578063f2fde38b1461036857610121565b80638bad0c0a146102505780638da5cb5b1461025a57806391d1485414610278578063a217fddf146102a8578063c7b57841146102c657610121565b80632a0acc6a116100f45780632a0acc6a146101d45780632f2ff15d146101f257806336568abe1461020e578063704802751461022a578063715018a61461024657610121565b806301ffc9a7146101265780631c681a4214610156578063248a9ca31461017457806324d7806c146101a4575b600080fd5b610140600480360381019061013b9190611199565b610384565b60405161014d91906111e1565b60405180910390f35b61015e6103fe565b60405161016b9190611215565b60405180910390f35b61018e6004803603810190610189919061125c565b610422565b60405161019b9190611215565b60405180910390f35b6101be60048036038101906101b991906112e7565b610442565b6040516101cb91906111e1565b60405180910390f35b6101dc610475565b6040516101e99190611215565b60405180910390f35b61020c60048036038101906102079190611314565b610499565b005b61022860048036038101906102239190611314565b6104c2565b005b610244600480360381019061023f91906112e7565b610545565b005b61024e6105ee565b005b610258610676565b005b6102626106a2565b60405161026f9190611363565b60405180910390f35b610292600480360381019061028d9190611314565b6106cb565b60405161029f91906111e1565b60405180910390f35b6102b0610736565b6040516102bd9190611215565b60405180910390f35b6102e060048036038101906102db91906112e7565b61073d565b6040516102ed91906111e1565b60405180910390f35b6102fe6107c5565b60405161030b9190611215565b60405180910390f35b61032e600480360381019061032991906112e7565b6107e9565b005b61034a60048036038101906103459190611314565b61097d565b005b610366600480360381019061036191906112e7565b6109a6565b005b610382600480360381019061037d91906112e7565b610a73565b005b60007f7965db0b000000000000000000000000000000000000000000000000000000007bffffffffffffffffffffffffffffffffffffffffffffffffffffffff1916827bffffffffffffffffffffffffffffffffffffffffffffffffffffffff191614806103f757506103f682610b6b565b5b9050919050565b7fffa60083152bd11704a80cc8c7a409dad8aa74288b454a3ba0e94c0abc7cf16881565b600060016000838152602001908152602001600020600101549050919050565b600061046e7fdf8b4c520ffe197c5343c6f5aec59570151ef9a492f2c624fd45ddde6135ec42836106cb565b9050919050565b7fdf8b4c520ffe197c5343c6f5aec59570151ef9a492f2c624fd45ddde6135ec4281565b6104a282610422565b6104b3816104ae610bd5565b610bdd565b6104bd8383610c7a565b505050565b6104ca610bd5565b73ffffffffffffffffffffffffffffffffffffffff168173ffffffffffffffffffffffffffffffffffffffff1614610537576040517f08c379a000000000000000000000000000000000000000000000000000000000815260040161052e90611401565b60405180910390fd5b6105418282610d5a565b5050565b61054d610bd5565b73ffffffffffffffffffffffffffffffffffffffff1661056b6106a2565b73ffffffffffffffffffffffffffffffffffffffff16146105c1576040517f08c379a00000000000000000000000000000000000000000000000000000000081526004016105b89061146d565b60405180910390fd5b6105eb7fdf8b4c520ffe197c5343c6f5aec59570151ef9a492f2c624fd45ddde6135ec4282610c7a565b50565b6105f6610bd5565b73ffffffffffffffffffffffffffffffffffffffff166106146106a2565b73ffffffffffffffffffffffffffffffffffffffff161461066a576040517f08c379a00000000000000000000000000000000000000000000000000000000081526004016106619061146d565b60405180910390fd5b6106746000610e3c565b565b6106a07fdf8b4c520ffe197c5343c6f5aec59570151ef9a492f2c624fd45ddde6135ec42336104c2565b565b60008060009054906101000a900473ffffffffffffffffffffffffffffffffffffffff16905090565b60006001600084815260200190815260200160002060000160008373ffffffffffffffffffffffffffffffffffffffff1673ffffffffffffffffffffffffffffffffffffffff16815260200190815260200160002060009054906101000a900460ff16905092915050565b6000801b81565b6000600360008373ffffffffffffffffffffffffffffffffffffffff1673ffffffffffffffffffffffffffffffffffffffff16815260200190815260200160002060009054906101000a900460ff1680156107be57506107bd7f75c8926d5f068ebc530646119a6c8b65785c321705e3a39f3f7898e9030b9c80836106cb565b5b9050919050565b7f75c8926d5f068ebc530646119a6c8b65785c321705e3a39f3f7898e9030b9c8081565b6107f233610442565b610831576040517f08c379a0000000000000000000000000000000000000000000000000000000008152600401610828906114d9565b60405180910390fd5b61085b7fffa60083152bd11704a80cc8c7a409dad8aa74288b454a3ba0e94c0abc7cf16882610c7a565b600260009054906101000a900473ffffffffffffffffffffffffffffffffffffffff1673ffffffffffffffffffffffffffffffffffffffff16632f2ff15d600260009054906101000a900473ffffffffffffffffffffffffffffffffffffffff1673ffffffffffffffffffffffffffffffffffffffff16630b71f1166040518163ffffffff1660e01b8152600401602060405180830381865afa158015610906573d6000803e3d6000fd5b505050506040513d601f19601f8201168201806040525081019061092a919061150e565b836040518363ffffffff1660e01b815260040161094892919061153b565b600060405180830381600087803b15801561096257600080fd5b505af1158015610976573d6000803e3d6000fd5b5050505050565b61098682610422565b61099781610992610bd5565b610bdd565b6109a18383610d5a565b505050565b6109af33610442565b6109ee576040517f08c379a00000000000000000000000000000000000000000000000000000000081526004016109e5906114d9565b60405180910390fd5b610a187f75c8926d5f068ebc530646119a6c8b65785c321705e3a39f3f7898e9030b9c8082610c7a565b6001600360008373ffffffffffffffffffffffffffffffffffffffff1673ffffffffffffffffffffffffffffffffffffffff16815260200190815260200160002060006101000a81548160ff02191690831515021790555050565b610a7b610bd5565b73ffffffffffffffffffffffffffffffffffffffff16610a996106a2565b73ffffffffffffffffffffffffffffffffffffffff1614610aef576040517f08c379a0000000000000000000000000000000000000000000000000000000008152600401610ae69061146d565b60405180910390fd5b600073ffffffffffffffffffffffffffffffffffffffff168173ffffffffffffffffffffffffffffffffffffffff161415610b5f576040517f08c379a0000000000000000000000000000000000000000000000000000000008152600401610b56906115d6565b60405180910390fd5b610b6881610e3c565b50565b60007f01ffc9a7000000000000000000000000000000000000000000000000000000007bffffffffffffffffffffffffffffffffffffffffffffffffffffffff1916827bffffffffffffffffffffffffffffffffffffffffffffffffffffffff1916149050919050565b600033905090565b610be782826106cb565b610c7657610c0c8173ffffffffffffffffffffffffffffffffffffffff166014610f00565b610c1a8360001c6020610f00565b604051602001610c2b929190611708565b6040516020818303038152906040526040517f08c379a0000000000000000000000000000000000000000000000000000000008152600401610c6d919061178c565b60405180910390fd5b5050565b610c8482826106cb565b610d5657600180600084815260200190815260200160002060000160008373ffffffffffffffffffffffffffffffffffffffff1673ffffffffffffffffffffffffffffffffffffffff16815260200190815260200160002060006101000a81548160ff021916908315150217905550610cfb610bd5565b73ffffffffffffffffffffffffffffffffffffffff168173ffffffffffffffffffffffffffffffffffffffff16837f2f8788117e7eff1d82e926ec794901d17c78024a50270940304540a733656f0d60405160405180910390a45b5050565b610d6482826106cb565b15610e385760006001600084815260200190815260200160002060000160008373ffffffffffffffffffffffffffffffffffffffff1673ffffffffffffffffffffffffffffffffffffffff16815260200190815260200160002060006101000a81548160ff021916908315150217905550610ddd610bd5565b73ffffffffffffffffffffffffffffffffffffffff168173ffffffffffffffffffffffffffffffffffffffff16837ff6391f5c32d9c69d2a47ea670b442974b53935d1edc7fd64eb21e047a839171b60405160405180910390a45b5050565b60008060009054906101000a900473ffffffffffffffffffffffffffffffffffffffff169050816000806101000a81548173ffffffffffffffffffffffffffffffffffffffff021916908373ffffffffffffffffffffffffffffffffffffffff1602179055508173ffffffffffffffffffffffffffffffffffffffff168173ffffffffffffffffffffffffffffffffffffffff167f8be0079c531659141344cd1fd0a4f28419497f9722a3daafe3b4186f6b6457e060405160405180910390a35050565b606060006002836002610f1391906117e7565b610f1d9190611841565b67ffffffffffffffff811115610f3657610f35611897565b5b6040519080825280601f01601f191660200182016040528015610f685781602001600182028036833780820191505090505b5090507f300000000000000000000000000000000000000000000000000000000000000081600081518110610fa057610f9f6118c6565b5b60200101907effffffffffffffffffffffffffffffffffffffffffffffffffffffffffffff1916908160001a9053507f780000000000000000000000000000000000000000000000000000000000000081600181518110611004576110036118c6565b5b60200101907effffffffffffffffffffffffffffffffffffffffffffffffffffffffffffff1916908160001a9053506000600184600261104491906117e7565b61104e9190611841565b90505b60018111156110ee577f3031323334353637383961626364656600000000000000000000000000000000600f8616601081106110905761108f6118c6565b5b1a60f81b8282815181106110a7576110a66118c6565b5b60200101907effffffffffffffffffffffffffffffffffffffffffffffffffffffffffffff1916908160001a905350600485901c9450806110e7906118f5565b9050611051565b5060008414611132576040517f08c379a00000000000000000000000000000000000000000000000000000000081526004016111299061196b565b60405180910390fd5b8091505092915050565b600080fd5b60007fffffffff0000000000000000000000000000000000000000000000000000000082169050919050565b61117681611141565b811461118157600080fd5b50565b6000813590506111938161116d565b92915050565b6000602082840312156111af576111ae61113c565b5b60006111bd84828501611184565b91505092915050565b60008115159050919050565b6111db816111c6565b82525050565b60006020820190506111f660008301846111d2565b92915050565b6000819050919050565b61120f816111fc565b82525050565b600060208201905061122a6000830184611206565b92915050565b611239816111fc565b811461124457600080fd5b50565b60008135905061125681611230565b92915050565b6000602082840312156112725761127161113c565b5b600061128084828501611247565b91505092915050565b600073ffffffffffffffffffffffffffffffffffffffff82169050919050565b60006112b482611289565b9050919050565b6112c4816112a9565b81146112cf57600080fd5b50565b6000813590506112e1816112bb565b92915050565b6000602082840312156112fd576112fc61113c565b5b600061130b848285016112d2565b91505092915050565b6000806040838503121561132b5761132a61113c565b5b600061133985828601611247565b925050602061134a858286016112d2565b9150509250929050565b61135d816112a9565b82525050565b60006020820190506113786000830184611354565b92915050565b600082825260208201905092915050565b7f416363657373436f6e74726f6c3a2063616e206f6e6c792072656e6f756e636560008201527f20726f6c657320666f722073656c660000000000000000000000000000000000602082015250565b60006113eb602f8361137e565b91506113f68261138f565b604082019050919050565b6000602082019050818103600083015261141a816113de565b9050919050565b7f4f776e61626c653a2063616c6c6572206973206e6f7420746865206f776e6572600082015250565b600061145760208361137e565b915061146282611421565b602082019050919050565b600060208201905081810360008301526114868161144a565b9050919050565b7f5265737472696374656420746f2061646d696e732e0000000000000000000000600082015250565b60006114c360158361137e565b91506114ce8261148d565b602082019050919050565b600060208201905081810360008301526114f2816114b6565b9050919050565b60008151905061150881611230565b92915050565b6000602082840312156115245761152361113c565b5b6000611532848285016114f9565b91505092915050565b60006040820190506115506000830185611206565b61155d6020830184611354565b9392505050565b7f4f776e61626c653a206e6577206f776e657220697320746865207a65726f206160008201527f6464726573730000000000000000000000000000000000000000000000000000602082015250565b60006115c060268361137e565b91506115cb82611564565b604082019050919050565b600060208201905081810360008301526115ef816115b3565b9050919050565b600081905092915050565b7f416363657373436f6e74726f6c3a206163636f756e7420000000000000000000600082015250565b60006116376017836115f6565b915061164282611601565b601782019050919050565b600081519050919050565b60005b8381101561167657808201518184015260208101905061165b565b83811115611685576000848401525b50505050565b60006116968261164d565b6116a081856115f6565b93506116b0818560208601611658565b80840191505092915050565b7f206973206d697373696e6720726f6c6520000000000000000000000000000000600082015250565b60006116f26011836115f6565b91506116fd826116bc565b601182019050919050565b60006117138261162a565b915061171f828561168b565b915061172a826116e5565b9150611736828461168b565b91508190509392505050565b6000601f19601f8301169050919050565b600061175e8261164d565b611768818561137e565b9350611778818560208601611658565b61178181611742565b840191505092915050565b600060208201905081810360008301526117a68184611753565b905092915050565b6000819050919050565b7f4e487b7100000000000000000000000000000000000000000000000000000000600052601160045260246000fd5b60006117f2826117ae565b91506117fd836117ae565b9250817fffffffffffffffffffffffffffffffffffffffffffffffffffffffffffffffff0483118215151615611836576118356117b8565b5b828202905092915050565b600061184c826117ae565b9150611857836117ae565b9250827fffffffffffffffffffffffffffffffffffffffffffffffffffffffffffffffff0382111561188c5761188b6117b8565b5b828201905092915050565b7f4e487b7100000000000000000000000000000000000000000000000000000000600052604160045260246000fd5b7f4e487b7100000000000000000000000000000000000000000000000000000000600052603260045260246000fd5b6000611900826117ae565b91506000821415611914576119136117b8565b5b600182039050919050565b7f537472696e67733a20686578206c656e67746820696e73756666696369656e74600082015250565b600061195560208361137e565b91506119608261191f565b602082019050919050565b6000602082019050818103600083015261198481611948565b905091905056fea2646970667358221220ef5dc098703060794f39c0fe456d639ece5c59f022455ed271be721ee28370cd64736f6c634300080a0033",
  "immutableReferences": {},
  "source": "// SPDX-License-Identifier: MIT\n/// @author Brian Lundin\npragma solidity 0.8.10;\n\nimport \"@openzeppelin/contracts/access/Ownable.sol\";\nimport \"@openzeppelin/contracts/access/AccessControl.sol\";\n\nimport \"./tokens/ExperimenDAOToken.sol\";\n\n/**\n  * @title InvestmentPool\n  * @notice This contract is the interface for investors and coordinates investment activity.\n  */ \ncontract InvestmentPool is Ownable, AccessControl {\n  bytes32 public constant FOUNDER = keccak256(\"FOUNDER\");\n  bytes32 public constant MEMBER = keccak256(\"MEMBER\");\n  bytes32 public constant ADMIN = keccak256(\"ADMIN\");\n\n  ExperimenDAOToken private daoToken;\n  mapping(address => bool) founders;\n  mapping(address => bool) members;\n\n  constructor(ExperimenDAOToken _daoToken) {\n    _grantRole(DEFAULT_ADMIN_ROLE, msg.sender);\n    _setRoleAdmin(ADMIN, DEFAULT_ADMIN_ROLE);\n    _setRoleAdmin(FOUNDER, ADMIN);\n\n    _grantRole(ADMIN, msg.sender);\n    \n    daoToken = _daoToken;\n  }\n\n  // FOUNDER functions\n  function addFounder(address newFounder) public onlyAdmin {\n    _grantRole(FOUNDER, newFounder);\n    founders[newFounder] = true;\n    // addMember(newFounder);\n  }\n\n  modifier onlyFounder() {\n    require(isFounder(msg.sender) && founders[msg.sender], \"Restricted to founders.\" );\n    _;\n  }\n\n  function isFounder(address account) public view returns (bool) {\n    return founders[account] && hasRole(FOUNDER, account);\n  }\n\n  // MEMBER functions\n  function addMember(address newMember) public onlyAdmin {\n    _grantRole(MEMBER, newMember);\n    daoToken.grantRole(daoToken.WHITELISTED(), newMember);\n  }\n\n  // ADMIN functions\n  modifier onlyAdmin() {\n    require(isAdmin(msg.sender), \"Restricted to admins.\");\n    _;\n  }\n\n  function isAdmin(address account) public virtual view returns (bool) {\n    return hasRole(ADMIN, account);\n  }\n\n  function addAdmin(address account) public virtual onlyOwner {\n    _grantRole(ADMIN, account);\n  }\n\n  function renounceAdmin() public virtual {\n    renounceRole(ADMIN, msg.sender);\n  }\n}",
  "sourcePath": "/Users/blundin/Developer/ethereum/ExperimenDAO/Contracts/contracts/InvestmentPool.sol",
  "compiler": {
    "name": "solc",
    "version": "0.8.10+commit.fc410830.Emscripten.clang"
  },
  "schemaVersion": "3.4.4",
  "updatedAt": "2021-12-17T18:45:35.261Z",
  "devdoc": {
    "kind": "dev",
    "methods": {
      "getRoleAdmin(bytes32)": {
        "details": "Returns the admin role that controls `role`. See {grantRole} and {revokeRole}. To change a role's admin, use {_setRoleAdmin}."
      },
      "grantRole(bytes32,address)": {
        "details": "Grants `role` to `account`. If `account` had not been already granted `role`, emits a {RoleGranted} event. Requirements: - the caller must have ``role``'s admin role."
      },
      "hasRole(bytes32,address)": {
        "details": "Returns `true` if `account` has been granted `role`."
      },
      "owner()": {
        "details": "Returns the address of the current owner."
      },
      "renounceOwnership()": {
        "details": "Leaves the contract without owner. It will not be possible to call `onlyOwner` functions anymore. Can only be called by the current owner. NOTE: Renouncing ownership will leave the contract without an owner, thereby removing any functionality that is only available to the owner."
      },
      "renounceRole(bytes32,address)": {
        "details": "Revokes `role` from the calling account. Roles are often managed via {grantRole} and {revokeRole}: this function's purpose is to provide a mechanism for accounts to lose their privileges if they are compromised (such as when a trusted device is misplaced). If the calling account had been revoked `role`, emits a {RoleRevoked} event. Requirements: - the caller must be `account`."
      },
      "revokeRole(bytes32,address)": {
        "details": "Revokes `role` from `account`. If `account` had been granted `role`, emits a {RoleRevoked} event. Requirements: - the caller must have ``role``'s admin role."
      },
      "supportsInterface(bytes4)": {
        "details": "See {IERC165-supportsInterface}."
      },
      "transferOwnership(address)": {
        "details": "Transfers ownership of the contract to a new account (`newOwner`). Can only be called by the current owner."
      }
    },
    "title": "InvestmentPool",
    "version": 1
  },
  "userdoc": {
    "kind": "user",
    "methods": {},
    "notice": "This contract is the interface for investors and coordinates investment activity.",
    "version": 1
  }
}